:020000040800F2
:1000000008990020714B0008FD0F0008FF0F000841
:10001000011000080310000805100008000000008F
:1000200000000000000000000000000007100008B1
:100030000910000800000000BBFD0008A9460008E8
:100040008B4B00088B4B00088B4B00088B4B000838
:100050008B4B00088B4B00088B4B00088B4B000828
:100060008B4B00088B4B00088B4B00088B4B000818
:100070008B4B00088B4B00088B4B00088B4B000808
:100080008B4B00088B4B00088B4B00088B4B0008F8
:100090008B4B00088B4B00088B4B00088B4B0008E8
:1000A0008B4B00088B4B00088B4B00088B4B0008D8
:1000B000FB1C00088B4B00082B4B00088B4B0008E7
:1000C0008B4B00088B4B00088B4B00088B4B0008B8
:1000D0008B4B000851480008FD4800088B4B000876
:1000E0008B4B00088B4B00088B4B00088B4B000898
:1000F0008B4B00088B4B00088B4B00088B4B000888
:100100008B4B00088B4B00088B4B00088B4B000877
:100110008B4B00088B4B00088B4B00088B4B000867
:100120008B4B00088B4B00088B4B00088B4B000857
:1001300000F002F800F0B0F80AA090E8000C824449
:100140008344AAF10107DA4501D100F0A5F8AFF226
:10015000090EBAE80F0013F0010F18BFFB1A43F0A5
:1001600001031847ACDB0300CCDB03000A444FF06B
:10017000000C10F8013B13F0070408BF10F8014B06
:100180001D1108BF10F8015B641E05D010F8016B4B
:10019000641E01F8016BF9D113F0080F1EBF10F8AF
:1001A000014BAD1C0C1B09D16D1E58BF01F801CBD2
:1001B000FAD505E014F8016B01F8016B6D1EF9D555
:1001C0009142D6D37047000000230024002500266A
:1001D000103A28BF78C1FBD8520728BF30C148BFAA
:1001E0000B6070476E290EF0458570290EF0FD8278
:1001F000662911F0B685652911F0B385672911F0DC
:10020000B0856129AFF3008003681B0A28BF41F065
:10021000800169290EF06E8264290EF06B827529C7
:100220000EF068826F290FF04B8078290EF0C9829A
:10023000E9290EF0E587E4290EF0E287F5290EF0B2
:10024000DF87EF290FF04880F8290EF0C882036895
:10025000DB0928BF41F0800163290EF05487732920
:100260000EF05987E3290FF0FB80F3290FF000818E
:10027000002070471FB50FF05BF80400002000213C
:1002800010F0ECFC401C60600020002110F0D0FC5D
:10029000E0601FBD10B510BD0FF084F91146FFF7E7
:1002A000E9FF00F0D2FD0FF0ABF903B4FFF7F2FF66
:1002B00003BC04F075FA00001FB5002602AD41F240
:1002C00088380827CDE90065002203AB1146FD48B8
:1002D00008F049FF0446BDF80810FBA00EF098F99D
:1002E000FDA021680EF094F9404604F030FA002396
:1002F000CDE900750122194618460AF007FDE1E72D
:1003000070B5064601F007F9F94DFA4C1222A969B9
:1003100020680CF0C0FA28700146F7A00EF078F9BA
:100320002068C168FBA00EF073F92068C1680CF06A
:1003300023FD3246FDA1A81C0EF076F9A81C0EF094
:1003400085FB0246FA4BA91C20680CF0F4FB2870D0
:10035000EFA120680DF096FD16B92068C0686861AD
:100360002978F4A00EF054F920680CF0F7FC2870FE
:10037000BDE870400146F6A00EF04AB92DE9F04FF5
:100380008DB001F0C8F8CF4900203031A1F5D36518
:100390000A5C2A54401CC0B20828F9D32E202872C7
:1003A000742068727821A972E872F049F0A00EF00A
:1003B0002FF9CF4C29461222A561CE4D28680CF0AA
:1003C0006AFA20700146EEA00EF022F92868C16892
:1003D000EEA00EF01DF92868C1680CF0CDFCB948FC
:1003E00030300EF033FBC6B23146ECA00EF010F9FF
:1003F000B449CF4B3246303128680CF09CFB20705A
:10040000B4F90E0010F0A9FEE94F4FF066363246FF
:100410003B4610F01BFD10F037FC11F0A3F9E54A44
:10042000E54B11F0B5F883468846B4F90C0010F09E
:1004300094FE32463B4610F009FD10F025FC11F009
:1004400091F9DE4ADE4B11F0A3F881468A46B4F9F1
:100450000A0010F082FE32463B4610F0F7FC10F026
:1004600013FC11F07FF9D74AD74B11F091F80646EB
:100470000F46B4F9080010F070FED44AD44B10F0C7
:1004800097FE6FF00D0211F0A0FC10F0FDFB11F0D3
:1004900069F9D04AD04B11F07BF8CDE90001E06A50
:1004A00011F060F9CDE90A01A06A11F05BF902468A
:1004B00004A8CDF8248080E8C00E0B46DDE90001D9
:1004C000CDE90201DDE90A01CDE900017D48C3A1C2
:1004D000F8300EF0A9F87B48F8300EF0B7FA7949F9
:1004E0000246934BF83128680CF025FB207001463A
:1004F000BFA00EF08DF828680CF030FC20700DB015
:100500000146BDE8F04FBDA00EF082B803460AE0F8
:1005100002782A2A02D02C2A02D003E0FF2070475A
:10052000491EC9B2401C0029F2D1C01AC0B270479E
:100530002DE9F04100250221B348FFF7E7FF074608
:100540000521B148FFF7E2FF0146AF48C25D312AFD
:1005500004D0322A02D00020BDE8F081594E3C463A
:10056000303603E0025DE31B641CF2548C42F9DB7D
:10057000307AA64A717A00EB800002EB40000C183A
:10058000B079F17900EB800002EB4000084431794A
:10059000737901EB810102EB41011944B278F378E0
:1005A00002EB820203EB42077378642253433278F2
:1005B00002EB420CCCEBC21203EBC2023A44A2F5AE
:1005C0005042503A930705D1642392FBF3F703FBA3
:1005D000172333B94FF4C87392FBF3F703FB1723C8
:1005E00003B9012504F10803182B33DBA1F1020341
:1005F000ADB10B2B10D2DFE803F0060F090F090F86
:100600000F090F090C001D281AD017E01E281AD058
:1006100014E01F281AD011E01F2814D00EE00B2B75
:10062000FAD2DFE803F009080708070808070807F7
:100630000600EEE7EAE7EFE71C2801D0401C0AE0DD
:100640000120032107E00120491C04E001200D21C5
:10065000521C00E01C460A2392FBF3F503FB152510
:1006600092FBF3F23035F57092FBF3F503FB1525A1
:1006700092FBF3F23035B57092FBF3F503FB1525D1
:1006800092FBF3F23035757092FBF3F503FB152501
:1006900092FBF3F291FBF3F203FB121291FBF3F1E5
:1006A00030353570303272713031317190FBF3F189
:1006B00003FB110190FBF3F03031F1713030B07178
:1006C000A6E00000500900202E2E2E2E2E2E657240
:1006D000723D25642E2E2E002E2E2E2E2E2E2E2EE8
:1006E0002ECAD5B5BDA3BA25642E2E2E2E0D0A0016
:1006F0000000002084010020464C4147B4F2BFAA0C
:10070000CEC4BCFEB7B5BBD8B4FAC2EBA3BA25645D
:100710000D0A0000464C41475F66696C655F73696E
:100720007A653A20256C640D0A0000002C256400CF
:10073000D0020020464C4147D0B4C8EBCEC4BCFE2A
:10074000B7B5BBD8B4FAC2EBA3BA25640D0A000052
:10075000464C4147B9D8B1D5CEC4BCFEB7B5BBD81D
:10076000B4FAC2EBA3BA25640D0A0000E802002027
:1007700066696C655F6E616D653A25730D0A0000F0
:100780006F70656E3A25640D0A00000066696C653D
:100790005F73697A653A2025640D0A0062756666A2
:1007A00065725F6C656E6774683A25640D0A0000B7
:1007B0006666304098DD9387855AEFBF508D976EFF
:1007C0001283C0BF9A779CA2233906C09A9999993F
:1007D00099992340560E2DB29DCF214025662C2598
:1007E000662C25662C25662C25662C2566000000C7
:1007F00077726974653A25640D0A0000636C6F7343
:10080000653A25640D0A0000781C0020F0FDFFFF0A
:1008100094FBF3F003FB10403030707294FBF3F064
:100820003030307204F04CF8012095E610B5EAA0A3
:100830000DF0EEFEEEA00DF0EBFEF0A004F039F9A5
:10084000642003F084FFC822F0A1F2A001F09AF91D
:10085000C822F3A1F3A001F095F9C822F0A1F5A0F8
:1008600001F090F9C822EEA1F9A001F08BF9C8229D
:10087000EBA1FAA001F086F9C822E9A1FDA001F0E0
:1008800081F94FF4FA72E6A1FE48006901F07AF9A5
:10089000642003F05CFF04F013F8BDE81040FAA0F8
:1008A0000DF0B6BE1FB5FFF7C1FF4FF4FA62F9A114
:1008B000F9A001F067F901460290FBA00DF0A8FE37
:1008C000DFF8F4B36FF00D094FF47A72D4A1FBA0F6
:1008D00001F058F910B9FDA00DF09AFE4FF4FA742A
:1008E000204603F034FFFFF723FE002855D0FFF722
:1008F00045FD4FF4E136304604F072F8F64DF7A1AD
:1009000005F1C8000EF0C1F80746F4A128460EF024
:10091000BCF80546C822F3A1F3A001F033F9014663
:10092000F4A00DF075FE2246F6A1284601F02AF942
:1009300005460146F5A00DF06BFE15B90120FFF745
:10094000DFFC304604F04CF8C822E6A1E6A001F036
:1009500019F90146E7A00DF05BFE2246E9A13846F1
:1009600001F010F901460290E8A00DF051FE01F0EF
:100970005BF9204603F0EBFEC821D7480EF099F84A
:10098000C04C607848B101F04FF94FF4FA62C1A150
:10099000C1A001F0F7F800206070BA4A2432111F9C
:1009A000081F02F07BFF0146DCA00DF031FEB54CC4
:1009B000E06910F0D7FE02460B46DEA00DF028FEDF
:1009C000206A10F0CFFE02460B46DDA00DF020FE9F
:1009D000606A10F0C7FE02460B46DCA00DF018FE60
:1009E00004F10802911E881E01F0CFFAB4F9080044
:1009F00010F0B3FBD84AD94B10F0DAFB4A4611F09D
:100A0000E4F910F041F92063206A10F0ABFEDFF842
:100A100050A35B46524610F0CBFB0022D14B10F0A6
:100A200015FA10F041F807468846E06910F09AFE82
:100A300052465B4610F0BCFB0022CA4B10F006FA8F
:100A400010F080F80546206B0E46009010F08AFEEC
:100A50002A46334610F0ACFB43463A4610F0A8FB5A
:100A600005460E46B4F9040011F00EF8009911F095
:100A700037F8494611F0D7F910F074FEBA4ABB4B6B
:100A800010F086FD2A46334610F082FD10F0FCF887
:100A9000A062E06910F066FE52465B4610F088FBEB
:100AA0000022B04B10F0D2F90FF0FEFF06460F46C1
:100AB000206A10F057FE52465B4610F079FB002288
:100AC000A84B10F0C3F910F03DF80546206B88469E
:100AD000824610F047FE2A46434610F069FB324634
:100AE0003B4610F065FB05460E46B4F9060010F0D3
:100AF000CBFF514610F0F4FF494611F094F910F085
:100B000031FE9B4A9B4B10F043FD2A46334610F0C2
:100B1000EDF810F0B9F8E06210F024FE05460E463C
:100B2000A06A10F01FFECDE9005602460B4692A0C7
:100B30000DF06EFD04F10E02911E881E01F00CFAFC
:100B40004FF4E13003F04CFF029801281FD1002040
:100B5000FFF7D6FB8FA061690DF05AFD49495E4849
:100B600003AC4FF40073042214313038009408F0C1
:100B700041FCBDF80C1092A00DF04AFD0820CDE913
:100B8000000400230122194618460AF0BFF89448D1
:100B90000DF03EFD98E6F0B58BB005F05AFC09A8C3
:100BA00008F017FF012109AA084606F0A6FE05F085
:100BB00025FD0746484809AB02228AA1303808F0D3
:100BC000E4F900240326CDE9064609AD40200621BC
:100BD000874A089505940DE147505253C4A3BFE9D5
:100BE000D4DAD7A2B2E1CDF8C2E70D0A00000000C6
:100BF000D7A2B2E1B3C9B9A60D0A000041542B43F4
:100C00004950434C4F53453D310000005348555423
:100C1000204F4B0041542B4349505348555400003A
:100C20004F4B000041542B4347434C4153533D220B
:100C30004222000041542B434744434F4E543D3120
:100C40002C224950222C22434D4E455422000000B4
:100C500041542B43474154543D31000041542B43F0
:100C60004950435347503D312C22434D4E45542269
:100C70000000000041542B434950484541443D3158
:100C80000000000000000020C1ACBDD3B3C9B9A66C
:100C90000D0A00004154000041542B43474E53506D
:100CA00057523D310D0A000067707320706F7765F1
:100CB000723A256400000000CA21094041542B43C8
:100CC000474E53494E460D0A00000000CAD5B5BD37
:100CD0004750530D0A000000800900200D0A1A0039
:100CE000000000003E00000041542B434950534592
:100CF0004E44000063697073656E643A25640D0AA2
:100D00000000000053454E44204F4B0073656E6455
:100D10005F6F6B3A25640D0A000000006D70755F0F
:100D2000646D705F6765745F646174613D25640D17
:100D30000A00000070697463683D25660D0A0000B2
:100D4000726F6C6C3D25660D0A0000007961773D7D
:100D500025660D0A000000009A99999999992340F7
:100D60006F1283C000806640304CA60A4625FA3FC9
:100D7000E4839ECDAACFCD3F6161637878203D208A
:100D800025662C206161637979203D2025660D0A56
:100D9000000000002E2E2E2E2E2E2E2E2E2E2E2E2B
:100DA0002EB7A2CBCDCFFBCFA2B6D3C1D02E2E2E45
:100DB0002E2E2E2E2E2E2E2E2E25640D0A000000F5
:100DC0002E2E2E2E2E2E2E2E2E6572723D25642E48
:100DD0002E2E2E2E2E2E2E2E2E2E2E0D0A00000002
:100DE000D4DB03084C494E45204D5347000000001A
:100DF00088050020CDE902100720CDE90002049407
:100E00002346AFF25F525AA15C4809F03CF8CDE9A5
:100E1000064680200C210895CDE90210584A08208A
:100E20000594CDE9000204940023AFF673325448D0
:100E300054A1C83809F027F8384605F0E3FB09A9A2
:100E4000002009F0DFF80BB0F0BDF0B58DB0002444
:100E500003F038FC4FF4A06003F0AAFE4FF4E13633
:100E6000304603F0A7FC00F019FF00F07BF900F01A
:100E7000A3F900F0E3FF4FF4FA7505E044A00DF08C
:100E8000C7FB284603F063FC02F0B9FC0028F5D14B
:100E90000DF076FA0DF0D6F94148012241A1006823
:100EA0000BF0D4FC02E040A00DF0B2FB00F033FBED
:100EB0000028F8D1641CA4B20BAA0AA939A00DF02D
:100EC00038FA0746C82003F042FC57B1052CF1D38D
:100ED00038A00DF09DFB304603F082FD4FF4FA641C
:100EE0000EE00B98820A0A98810A35A00DF090FB5B
:100EF000F1E73A493AA00DF08BFB284603F027FCB6
:100F00002246AFF27021AFF2702000F03BFE0028C5
:100F1000EFD109A806F08DFB05F070FB0021044617
:100F200009A8032205910691CDE907200622402059
:100F300002922E4BCDE903010820CDE900030B46B8
:100F4000AFF2AD3229482AA1C83808F09CFF2046EC
:100F500005F058FB09A806F08BFD0DB00020F0BD90
:100F60000346012000E05843491EC9B2FBD2704736
:100F70005461736B31207461736B0000C0040020F6
:100F8000500700205461736B32207461736B000052
:100F90004D505536303530204552524F520D0A00D3
:100FA00090010020303A00005344206572726F7245
:100FB0000D0A00005344BFA86572726F72000000F2
:100FC0005344BFA84F4B20CAA3D3E025644D422C05
:100FD000D7DCB9B225644D420D0A0000781C002010
:100FE000CAA7B0DC25730D0A00000000C003002072
:100FF0007374617274207461736B00007047FEE754
:10100000FEE7FEE7FEE77047704700000CB50022E0
:101010004C4800920192016841F4803101604FF424
:10102000A063016801F4003101910099491C00910D
:10103000019911B900999942F3D10168890333D517
:101040000121019140490A6842F010020A600A68D1
:1010500022F003020A600A6842F002020A60416854
:10106000416041684160416841F48061416041688C
:1010700021F47C114160416841F4E811416001684C
:1010800041F08071016001688901FCD5416821F05F
:1010900003014160416841F0020141604168C1F3D0
:1010A00081010229FAD10CBD01920CBD254810B571
:1010B000016841F0010101604168244A114041602A
:1010C0000168234A11400160016821F48021016018
:1010D000416821F4FE0141604FF41F018160FFF778
:1010E00095FF1C494FF00060086010BD154A10B50F
:1010F0005068194B10F00C01184803D0042901D096
:10110000082901D0036012E05168536801F470119E
:101110004FF0020413F4803F04EB914102D0536876
:101120009B0301D50E4B00E00B4B59430160516806
:101130000A4AC1F30311121D515C0268CA400260E1
:1011400010BD000000100240002002400000FFF827
:10115000FFFFF6FE08ED00E000127A003C000020E0
:1011600000093D0038B50121242004F04CF94FF46A
:101170008074ADF8004010208DF8030003200C4D62
:101180008DF802006946284603F0C1FD2146284635
:1011900003F027FE0420074CADF800006946204606
:1011A00003F0B5FD0421204603F01BFE38BD00000E
:1011B000000801400014014038B50121142004F05A
:1011C00022F90121384803F02DFE4FF40040ADF81C
:1011D0000000364D48248DF803406946284603F048
:1011E00096FD2021ADF800108DF803406946304887
:1011F00003F08DFD0120ADF8000028208DF80300DC
:101200006946284603F083FD38BD2DE9F041294C9D
:10121000274F264D01264FF4004808B1267001E003
:10122000207878B12021384603F0C7FD88B14146C7
:10123000284603F0C2FD60B10121284603F0BDFD40
:10124000012806D02021384603F0B7FD01281DD023
:1012500028E00A2003F07BFA002020702021384685
:1012600003F0ABFD58B14146284603F0A6FD48B156
:101270000121284603F0A1FD012805D012E001203C
:10128000BDE8F0810220FBE70320F9E7414628464C
:1012900003F093FD012805D10121284603F08DFDBF
:1012A00000B926700020EBE7000230000008014082
:1012B000001001405000002000F052BA382000F029
:1012C000ACBA002000F0A9BA38B50121042004F01E
:1012D0009AF81C20ADF8000010208DF803000320C0
:1012E000FC4C8DF802006946204603F010FD1C21DD
:1012F000204603F076FD00F059FAF7490120C1F8C5
:101300008C0138BDF4490120C1F88C01FF2000F0A8
:1013100027BA70B500246FF07F45FF20FFF7CCFFA0
:10132000FF2804D0641CAC42F7D3012070BD00201C
:1013300070BDE94910B50020C1F88C01FFF7E9FF45
:10134000002802D0FFF7DEFF012010BD70B5054672
:101350004FF6FF7401E0641EA4B2FF20FFF7ACFF5C
:10136000A84202D0002CF6D102E00CB1002070BDE2
:10137000FF2070BD70B504460D46FE20FFF7E6FF66
:1013800028B1012070BD00F0EBF904F8010B6D1ECF
:10139000ADB24FF0FF00F6D200F0E2F9FF2000F00E
:1013A000DFF9002070BD70B50C460546FFF7B1FFB0
:1013B00008B1012070BD204600F0D2F9FD2C18D0F4
:1013C00000244FF40076285D00F0CAF9641CA4B232
:1013D000B442F8D3FF2000F0C3F9FF2000F0C0F9B9
:1013E000FF20FFF769FF00F01F00052801D0022051
:1013F00070BD002070BD70B516460C460546FFF75F
:1014000081FFFFF796FF08B1FF2070BD45F0400057
:1014100000F0A6F9200E00F0A3F9C4F3074000F095
:101420009FF9C4F3072000F09BF9E0B200F098F9AF
:10143000304600F095F90C2D02D1FF2000F090F914
:101440001F24FF20FFF738FF0106DED5641EE4B23B
:10145000F7D270BD70B50546012200210A20FFF7C2
:10146000CAFF040004D110212846FFF783FF044679
:10147000FFF748FF0CB1012070BD002070BD70B5B2
:101480000546012200210920FFF7B5FF040004D121
:1014900010212846FFF76EFF0446FFF733FF0CB11B
:1014A000012070BD002070BD1FB56846FFF7E7FF43
:1014B00010B1002004B010BD9DF800100120B0EB69
:1014C000911F09D19DF808209DF8091000EB02201A
:1014D000084400048009EDE79DF805009DF80A1016
:1014E00000F00F0000EBD1109DF809109DF80720C7
:1014F00001F0030100EB41019DF80800800900EBB9
:1015000082009DF8062002F0030200EB8220401CBE
:10151000C91F8840CEE72DE9F843FFF7D5FE3820F4
:1015200000F07BF90024FF2000F01AF9641CA4B23B
:101530000A2CF8D31424002195220846FFF75BFFFC
:101540000546012802D0641EA4B2F4D2634E0027DF
:10155000012D37707AD187224FF4D5710820FFF71B
:101560004AFF4FF6FE7801281ED0012200213720C5
:10157000FFF741FF012200212920FFF73CFF01284E
:101580004FD8022030704446012200213720FFF757
:1015900032FF012200212920FFF72DFF05004DD049
:1015A000641EA4B2F0D249E000246F46FF20FFF78A
:1015B00083FE3855641CA4B2042CF7D39DF80200B6
:1015C000012843D19DF80300AA283FD144464FF09B
:1015D0008048012200213720FFF70DFF01224146FC
:1015E0002920FFF708FF050002D0641EA4B2F0D244
:1015F000B4B1012200213A20FFF7FDFE80B900249A
:10160000FF20FFF759FE3855641CA4B2042CF7D311
:101610009DF80000400601D5062000E0042030704F
:1016200014E0012030704446012200211046FFF7EB
:10163000E2FE050002D0641EA4B2F5D22CB1012254
:1016400051021020FFF7D7FE00B13770FFF75AFEA6
:10165000002000F0E2F8307810B10020BDE8F883F7
:101660000DB12846FAE7AA20F8E72DE9F041064631
:101670001A4815460078062800D049024FF4007732
:10168000012D4FF0010219D01220FFF7B4FE3946A8
:101690003046FFF76FFE6D1E044606F5007615F026
:1016A000FF0501D0002CF2D0012200210C20FFF711
:1016B000A2FEFFF727FE2046BDE8F0811120FFF7CC
:1016C0009AFE0400F5D139463046FFF753FE044632
:1016D000EFE7000000080140000021425100002017
:1016E00070B506461D4815460C460078062800D001
:1016F0004C02012D13D0012809D0012200213720EE
:10170000FFF779FE012229461720FFF774FE012218
:1017100021461920FFF76FFE04000AD01AE00122CB
:1017200021461820FFF767FE040013D1FE21304642
:101730000DE0FC213046FFF736FE6D1E06F5007603
:1017400015F0FF0501D00028F3D0FD210020FFF7A0
:101750002AFE0446FFF7D6FD204670BD510000204A
:1017600070B506460024334D03E0641CE4B2C82C77
:101770000FD80221284603F0A1FF0028F5D03146FA
:10178000284603F057FF002405E0641CE4B2C82C8F
:1017900001D9002070BD0121284603F08FFF0028E9
:1017A000F3D0284603F048FFC0B270BD38B5012120
:1017B00041F2040003F027FEE020ADF800001820FD
:1017C0008DF8030003201C4C8DF80200694620466A
:1017D00003F09DFAE021204603F003FB17480021A7
:1017E0004FF482720180428081800222C2800122F5
:1017F00002815202428138228281C1810721018205
:101800000C4C0146204603F071FE0121204603F0F6
:10181000E9FEFF20FFF7A4FF38BD10B50749054CCE
:101820008881204603F062FE2046BDE81040012179
:1018300003F0D8BE0030014000080140C00A00207B
:1018400070B5C54D0024C5F88841902005F5C475D4
:10185000FFF786FF0020FFF783FF0020FFF780FFE0
:101860000020FFF77DFFFF20FFF77AFF44EA002406
:10187000FF20FFF775FF20430121296070BD38B5B7
:101880000121042003F0BFFD1C20ADF80000102052
:101890008DF803000320B14C8DF802006946204604
:1018A00003F035FA1C21204603F09BFAFFF77EFF78
:1018B0000820FFF7B2FFFFF7C3FFA949088038BD32
:1018C00010B5A54C0020C4F88801052004F5C474A7
:1018D000FFF746FFFF20FFF743FF0121216010BD06
:1018E00070B59D4C00210546C4F88811012004F50F
:1018F000C474FFF735FF2846FFF732FF0120206050
:1019000070BD10B5944C0020C4F88801062004F581
:10191000C474FFF725FF0120206010BD10B58E4C68
:101920000020C4F88801042004F5C474FFF718FFF0
:101930000120206010BD2DE9F041874F06460020B0
:1019400015460C46C7F888010320FFF709FFC4F3CA
:101950000740FFF705FFC4F30720FFF701FFE0B2E0
:10196000FFF7FEFE002405E0FF20FFF7F9FE3055EB
:10197000641CA4B2AC42F7D30120C7F88801BDE8CB
:10198000F08110B5FFF79CFFC007FBD110BD2DE91A
:10199000F04115460C460646FFF7B3FF6E4F002098
:1019A000C7F888010220FFF7DBFEC4F30740FFF70A
:1019B000D7FEC4F30720FFF7D3FEE0B2FFF7D0FE57
:1019C000002404E0305DFFF7CBFE641CA4B2AC42FF
:1019D000F8D30120C7F88801BDE8F041D1E72DE92F
:1019E000F0410746C8B2C0F580740E461546A242C3
:1019F00000D814464FF48078224631463846FFF727
:101A0000C6FFA542BBD0281B2744264485B24446C6
:101A1000A542F1D82C46EFE7B1E770B50403FFF714
:101A200070FFFFF7AEFF4C4D0020C5F88801202065
:101A300005F5C475FFF794FEC4F30740FFF790FE69
:101A4000C4F30720FFF78CFEE0B2FFF789FE012008
:101A50002860BDE8704094E72DE9F05FC1F30B0604
:101A60000F0BC6F58054894680461546A24200D821
:101A70001446DFF8F0A039038B464FF48052394802
:101A8000FFF759FF002006E032181AF80210FF296C
:101A900003D1401C80B2A042F6D3A04221D23846E6
:101AA000FFF7BBFF0020524605E018F8001083192D
:101AB000401CD15480B2A042F7D359464FF4805213
:101AC0002848FFF78CFFA5420FD0281BA044A14453
:101AD000002685B24FF480547F1CA542CBD82C46FB
:101AE000C9E7224649464046EBE7BDE8F09F10B5FE
:101AF000FFF707FFFFF745FF174C0020C4F88801E8
:101B0000C72004F5C474FFF72BFE01202060BDE858
:101B1000104036E710B5104C0020C4F88801B920F9
:101B200004F5C474FFF71CFE01202060BDE81040DE
:101B3000032002F0EDBD10B5074C0020C4F8880169
:101B4000AB2004F5C474FFF70BFE01202060BDE854
:101B50001040032002F0DCBD0000214200080140DB
:101B600052000020D20A0020354A01460020128887
:101B7000130406D5334BC2F30E02985418460CF0EA
:101B800003BF70472DE9F0412D4F884600260146DE
:101B9000144635463E802CA002F0AEFFB8F1000F8F
:101BA0001AD06CB918E00A2002F0D1FD3888000480
:101BB00006D54046FFF7D8FF08B12CB105E03D80BF
:101BC000641E2404240CEED101262148224905700C
:101BD00020480470012008703046BDE8F08110B53F
:101BE00002F06EFE02F06CFE1CA002F062FF1EA06E
:101BF00002F082FF41F2883002F0A9FD114A002074
:101C0000115C3A2905D111180979312904D03529F7
:101C100002D0401CC0B2F3E713A00CF0F9FCBDE801
:101C2000104012A00CF0F4BC10B5022212A113A0B7
:101C3000FFF7A8FFBDE81040082213A114A0A1E7F8
:101C400094000020781C002025730D0A000000007D
:101C500034000020350000203800002041542B4380
:101C60005245473F000000000D0A0000D7A2B2E134
:101C7000D6D02E2E2E2E2E003E00000041542B4397
:101C8000495053454E44000053454E44204F4B00AD
:101C90004F4B313233340D0A1A0000001FB50121B9
:101CA000084603F0B9FB42F20F70ADF8040041F6AC
:101CB0001F40ADF800000020ADF80600ADF80200AE
:101CC0004FF080446946204603F0BEFD1C208DF88D
:101CD0000C0001218DF80D108DF80E108DF80F10ED
:101CE00003A802F06AFF01221146204604F069F8B9
:101CF0000121204604F050F81FBD10B501218C07CA
:101D0000204604F072FA00281DD00121204604F07C
:101D100078FA0D4A11780D4811B10178491C01700B
:101D20000B4903780C780021A34201D9117001708E
:101D3000084A1088401C80B21080092803D91180FD
:101D400005490120087010BD380000203400002033
:101D500035000020360000200100002070B50C4640
:101D6000054600F077F9D02000F00CFA00F0ABF94E
:101D700050B9284600F006FA00F0A5F9204600F018
:101D800001FA00F0A0F918B100F080F9012070BD4F
:101D900000F07CF9002070BDBC2801D3012110E0C7
:101DA000622801D302210CE02A2801D3032108E094
:101DB000142801D3042104E00A2801D3052100E0FE
:101DC00006211A20CAE710B504464FF47A708442FF
:101DD00001D9044602E0042C00D20424B0FBF4F044
:101DE000401EC1B21920FFF7B9FF6008BDE81040DE
:101DF000D2E710B5044600F02DF9D02000F0C2F96A
:101E000000F061F9204600F0BDF900F05CF900F047
:101E100021F9D12000F0B6F900F055F9002000F0CA
:101E2000D9F9044600F032F9204610BDC006010E73
:101E30001C2093E7C006010E1B208FE710B500F0B1
:101E4000F0F880216B20FFF789FF642002F07FFC0F
:101E500000216B20FFF782FF0320FFF7EBFF00203C
:101E6000FFF7E4FF3220FFF7AEFF00213820FFF735
:101E700075FF00216A20FFF771FF00212320FFF783
:101E80006DFF80213720FFF769FF7520FFF7B1FF55
:101E9000682801D0012010BD01216B20FFF75EFFF3
:101EA00000216C20FFF75AFF3220FFF78CFF002043
:101EB00010BD2DE9F0411C4615460F46064600F0C0
:101EC000C9F87006000E00F05DF900F0FCF820B1D2
:101ED00000F0DCF80120BDE8F081384600F052F94E
:101EE00000F0F1F800F0B6F8012000EB4600C0B2B7
:101EF00000F048F900F0E7F808E0012D0CD00120CF
:101F000000F068F96D1E04F8010BEDB2002DF4D15C
:101F100000F0BCF80020DEE70020F1E708B56B46D2
:101F2000022241216820FFF7C4FFBDF8000040BA3B
:101F300000B20FF012F90022344B0EF087FF344A42
:101F4000344B0EF0D3FE0EF09FFE33490FF0C8FD68
:101F50000FF05EFD00B208BD7CB514460D46064686
:101F60006B46062243216820FFF7A3FF00280BD110
:101F7000BDF8001049BA3180BDF8021049BA298075
:101F8000BDF8041049BA21807CBD7CB514460D46CD
:101F900006466B4606223B216820FFF78AFF002891
:101FA0000BD1BDF8001049BA3180BDF8021049BA12
:101FB0002980BDF8041049BA21807CBD2DE9F0418B
:101FC0001D4616460C46074600F044F87806000EFB
:101FD00000F0D8F800F077F860B9204600F0D2F8A9
:101FE00000F071F800240BE0285D00F0CBF800F061
:101FF0006AF818B100F04AF801206CE7641CE4B2FA
:10200000B442F1D300F042F8002064E7004075408C
:10201000A4703D0AD74342400000C842022002F0AB
:1020200077BB38B50121102003F0EDF94FF4C0540F
:10203000ADF8004010208DF8030003207E4D8DF890
:1020400002006946284602F062FE2146284602F058
:10205000C8FE38BD70B57848416821F470414160D0
:10206000416841F440514160744C0120C4F8AC0116
:10207000C4F8B001022004F5D67402F049FB002533
:102080002560022002F044FB656070BD6A4810B50F
:10209000416821F470414160416841F44051416020
:1020A000664C0020C4F8B001C4F8AC01022004F56D
:1020B000D67402F02DFB012060602060BDE8104066
:1020C000022002F025BB70B55B480024416821F472
:1020D00070414160416841F400414160574D012623
:1020E000C5F8AC61022002F013FBC5F8B061022014
:1020F00002F00EFB07E0641CE4B2FA2C03D9FFF7F0
:10210000C5FF012070BDD5F82C010028F3D1C5F81A
:10211000B00170BD70B5494C0025C4F8B0514648B7
:10212000416821F470414160416841F4405141608F
:10213000C4F8AC51022004F5D67402F0E9FA01208B
:102140006060022002F0E4FA656070BD70B53B4C3F
:102150000026C4F8B0613848416821F470414160FC
:10216000416841F4405141600125C4F8AC5102205E
:1021700004F5D67402F0CCFA6560022002F0C8FAC9
:10218000666070BD2DE9F04105462B48416821F499
:1021900070414160416841F440514160274E002741
:1021A000C6F8B0713C464FF00108E809C6F8AC012A
:1021B0006806050EC6F8B081022002F0A9FAC6F83A
:1021C000B071022002F0A4FA641CE4B2082CECD333
:1021D000BDE8F0812DE9F0478146174800244168A9
:1021E00021F470414160416841F400414160134E67
:1021F000254627464FF00108C6F8B071022002F0CC
:1022000087FAC6F8B0816006040ED6F82C0108B132
:10221000641CE4B2022002F07BFA6D1CEDB2082DC2
:10222000EAD3B9F1000F04D0FFF774FF2046BDE8F0
:10223000F087FFF78BFFF9E7001001400000224212
:10224000F8B5FE4C0023224694F82460D2E900122F
:102250005D1E56B190B102200DE01078C97B6B462F
:102260000122FFF7ABFE60B90DE0A67A4EB128B1AE
:10227000607C58B901208DF80000EEE78DF8003041
:10228000EBE72846F8BD9DF8000060740020F8BD1B
:1022900038B50024E94D18E02868C27AA24212D06D
:1022A000407DA0420FD008786B4601222146FFF7FF
:1022B00000FE10B14FF0FF3038BD9DF800202146E0
:1022C000DFA00CF0A5F9641CE4B269680879A042AB
:1022D000E2D8002038BDD94A30B40B4611684FF01F
:1022E000FF34CD7A854206D0497D814203D05168C2
:1022F0000A79824202D8204630BC70470C780146E9
:10230000204630BC0122FFF7D4BD38B5CB4D044682
:1023100095F82300A04201D1002038BD0CB1302037
:1023200000E000208DF80000A87C28B19DF8000096
:1023300040F002008DF8000095F8220028B19DF8C9
:10234000000040F080008DF8000028686B460122F4
:10235000017D68680078FFF731FE10B14FF0FF3063
:1023600038BD85F82340D7E7F8B5044610F0700F64
:102370004FF0000601D0012004E014B18DF8006098
:1023800002E040208DF80000AC4D6B460122286829
:10239000817C68680078FFF711FE4FF0FF3760BB63
:1023A0009DF8000020F0400028738DF80060600662
:1023B00002D404208DF80000A00605D49DF800008A
:1023C00040F002008DF80000E00605D49DF8000002
:1023D00040F001008DF80000200705D49DF80000B2
:1023E00040F038008DF8000028686B460122C17C5F
:1023F00068680078FFF7E2FD10B1AE723846F8BDAC
:1024000024B1082C02D00020FFF77FFFAC722E759C
:10241000322002F09CF90020F8BDF8B5874D044643
:10242000A87CA04201D10020F8BD84484FF0FF36BF
:102430006B46D0E900104FF001020979007834B3FF
:10244000FFF737FDD8BB9DF800006B4620F0200059
:102450008DF8000028680122017968680078FFF78C
:10246000ADFD60BB032002F072F902208DF8000080
:1024700095F8220070B382202AE028686B4601227A
:10248000017D68680078FFF799FDC0B92DE0FFF77E
:1024900010FDA0B9A87AC0079DF8000002D040F056
:1024A000200001E020F020008DF8000028686B4635
:1024B0000122017968680078FFF780FD08B1304695
:1024C000F8BD032002F043F995F8220000B1802006
:1024D0008DF8000095F823000028CED09DF800006C
:1024E00040F030008DF80000C7E7AC749BE7F8B50A
:1024F000524D4FF0FF36A87A00287CD000248DF88A
:10250000004028686B460122C17B68680078FFF7AD
:1025100055FD00286FD128686B4601224179686813
:102520000078FFF74BFD002865D128686B46012233
:10253000017968680078FFF741FD00285BD195F8C4
:102540002400E0B30C208DF8000028686B460122BF
:10255000017968680078FFF731FD00287DD13220CD
:1025600002F0F5F8C0208DF80000A87AC00702D06C
:10257000E0208DF8000028686B4601220179686828
:102580000078FFF71BFD002867D1687C18B1022096
:102590008DF8000001E08DF8004028686B460122AC
:1025A000C17B68680078FFF709FD20BB8DF800400B
:1025B00028686B4601224179686800783DE0FFE7B2
:1025C00004208DF8000028686B46012201796868B4
:1025D0000078FFF7F3FC70B9A87C88B9A87AC00727
:1025E0000ED060208DF8000028686B46012201792A
:1025F0006868007800E02BE0FFF7E0FC40BB01E0FA
:102600004020EFE7322002F0A2F8687C18B10120E8
:102610008DF8000001E08DF8004028686B4601222B
:10262000C17B68680078FFF7C9FC88B92868034B4C
:10263000417968681033012200780AE054000020D4
:10264000252335783A20252335780D0A000000002F
:1026500003E0FFF7B3FC002800D03046F8BD2DE9B9
:10266000F041002620F00104FE4D95F8240010B141
:102670000020BDE8F081A87A4FF0FF3838B1204043
:102680002F7C2874A04200D0464624B901E0404681
:10269000EFE7287D40B10120FFF7D2FD3CB1FFF705
:1026A00026FF20B12F74F2E70020FFF7C9FD304666
:1026B000DFE738B5EB4C4FF0FF35A17A31B3BC28DA
:1026C00001D3012010E0622801D302200CE02A2867
:1026D00001D3032008E0142801D3042004E00A28D1
:1026E00001D3052000E006208DF80000E07A9DF877
:1026F0000010884201D1002038BD20686B460122BD
:10270000817860680078FFF759FC08B1284638BD29
:102710009DF80000E072EEE72DE9F84304464FF023
:10272000FF39282844D80727CE4D00267CB1012048
:10273000FFF7EBFD20208DF800004FF00108012C81
:1027400017D0052C18D88DF8018005201FE0002037
:10275000FFF7DBFD8DF800608DF8017028686B468F
:102760000222817C68680078FFF728FC00BB2E7588
:1027700029E08DF80160E8E7142C04D802208DF8D8
:1027800001000A2003E003208DF801001420FFF768
:1027900090FF9DF801006B4607EB80108DF801005B
:1027A00028680222817C68680078FFF707FC10B176
:1027B0004846BDE8F8830820A8722E7385F8148077
:1027C0000020FFF74CFF0020F3E7F8B5A54D0446C5
:1027D0004FF0FF37A87A28B395F8240010BB287D66
:1027E00048B12CB1282C03D8E0B2FFF795FF24E0C4
:1027F0000020FFF791FF4FF47A76042C01D20424D5
:1028000002E0B44200D93446B6FBF4F0401E8DF825
:10281000000028686B460122417868680078FFF75D
:10282000CDFB08B13846F8BD9DF80000401CB6FB52
:10283000F0F0E8814008FFF73CFF0020F8BD38B514
:10284000884C4FF0FF35A17A19B3022806D004282E
:1028500006D008280ED010281BD10DE0002000E083
:1028600008208DF80000607A9DF80010B0EBD10FC1
:1028700004D005E01020F4E71820F2E7002038BD6E
:1028800020686B460122C17960680078FFF796FBEB
:1028900008B1284638BD9DF80000C0086072EDE719
:1028A00038B5704C4FF0FF35A17A31B3FA2809D012
:1028B000B0F5FA7F08D0B0F57A7F0FD0B0F5FA6F97
:1028C0001BD10DE0002000E008208DF80000207AE8
:1028D0009DF80010B0EBD10F04D005E01020F4E714
:1028E0001820F2E7002038BD20686B46012281796C
:1028F00060680078FFF762FB08B1284638BD9DF894
:102900000000C0082072EDE72DE9FC41554C802005
:102910008DF8000020686B460122817C6068007899
:10292000FFF74CFB4FF0FF37002832D1642001F055
:102930000EFF00258DF8005020686B460122817C37
:1029400060680078FFF73AFB002870D120686B467A
:102950000622817D60680078FFF7ABFA002866D117
:102960009DF805009DF80310C007400F01F001011C
:1029700040EA41019DF801004FF0010600F001001E
:10298000014309D0012905D0022915D036A00BF04A
:102990003FFE4CE0E67410E020686B460122C178EF
:1029A00060680078FFF785FA40BB9DF8000010F0E2
:1029B0000F0020D0042822D0E574FF2004F80A0F6D
:1029C0004FF6FF7104F8020C04F8010C6070A1804E
:1029D000A0712072A67026766576E572A572E56014
:1029E00025616561A576E576A5834FF4FA60FFF76A
:1029F00057FF18B907E026480BF00AFE17E025A09C
:102A00000BF006FEC6E70220FFF719FF78B92A206F
:102A1000FFF74FFE58B93220FFF7D7FE38B9002034
:102A2000FFF71DFE18B90020FFF7F7FC10B138467C
:102A3000BDE8FC810020FFF797FC0020F8E7704715
:102A40007CB5044607484FF0FF35817A11F0700FCE
:102A500031D0016840686B46097B00780622FFF799
:102A600028FA27E054000020556E737570706F725D
:102A700074656420736F6674776172652070726F1D
:102A800064756374207265762025642E0A00000048
:102A90005CDC030848616C662073656E7369746959
:102AA00076697479207061727420666F756E642E19
:102AB0000A00000008B128467CBDBDF8000040BAFD
:102AC0002080BDF8020040BA6080BDF8040040BA22
:102AD000A08000207CBD7CB50446FE484FF0FF3549
:102AE000817A090708D5016840686B46497B007800
:102AF0000622FFF7DEF908B128467CBDBDF80000CC
:102B000040BA2080BDF8020040BA6080BDF80400E1
:102B100040BAA08000207CBDF8B5EE4C07464FF0CF
:102B2000FF35A07A40B120686B460222817B606845
:102B30000078FFF7BEF908B12846F8BDBDF80000DF
:102B4000646840BA05B2E0880EF0B6FF0646B4F9F4
:102B500008000EF099FF044628460EF095FF214626
:102B60000FF08AF831460EF091FEDB490EF026FE9A
:102B700010210FF058F90EF04BFF38600020F8BD1F
:102B80002DE9FC4104004FF0FF3862D0206820B9E5
:102B9000606810B9A06800285CD0CE4F03226B4655
:102BA000786811460078FFF784F9E0BB9DF80010C3
:102BB000082000EB111101F00F029DF801109DF8A3
:102BC000023000EB111100EB1310236840325B0060
:102BD00093FBF2F216B2626801F00F01520040312D
:102BE00092FBF1F10DB2A16800F00F0049004030F6
:102BF00091FBF0F004B2786806226B46007811462B
:102C0000FFF757F978B9BDF80000BDF8021040BAD7
:102C1000BDF80420304449BA52BA030A2944224478
:102C20008DF8003000E014E08DF80100080A8DF8FE
:102C30000200100A8DF804008DF803108DF80520AD
:102C4000786806226B4600781146FFF7B7F900282E
:102C500000D04046ECE69F49097A39B1012907D0F6
:102C600002290AD003290BD0002103E0FA2101E058
:102C70004FF4FA710180002070474FF47A71F9E740
:102C80004FF4FA61F6E7934A517A41B1012908D02D
:102C900002290FD003290FD04FF0FF3070470221D7
:102CA00000E004210170D17C11B10178490001706C
:102CB000002070470821F5E71021F3E78549C97A1C
:102CC000072913D2DFE801F01204060A0C0E1000E7
:102CD000BC2100E062210180002070472A21FAE730
:102CE0001421F8E70A21F6E70521F4E70021F2E7CD
:102CF000784991F8242012B14FF0FF307047C9890C
:102D000001800020704700210180481E70474FF06D
:102D1000FF3070476F49097A41B1012908D0022973
:102D20000AD003290AD04FF0FF3070476B4900E00A
:102D30006B490160002070476A49FAE76A49F8E781
:102D4000644A517A41B1012909D0022911D00329DD
:102D500012D04FF0FF3070474FF4804101E041F650
:102D60009C710180D17C11B101884908018000204B
:102D700070474FF48051F4E74FF40061F1E7554993
:102D8000097C0170002070475249897A01B1012104
:102D900001700020704738B505464E484FF0FF34AB
:102DA000817A41B1016840686B46097C0078022253
:102DB000FFF77FF808B1204638BDBDF8000040BAE3
:102DC0002880002038BD2DE9FE4F884641498146C4
:102DD000002491F824001E4625464FF0FF3BD0BB4F
:102DE00000203070887AB0B3087CA0B3420600D5CA
:102DF0000224820600D5A41CC20600D5A41C00072C
:102E000000D5A41D8A460968DAF804006B46897A61
:102E100000780222FFF74DF8E8B9BDF8000047BA84
:102E2000A74263D3DAF804004188B7EB510F13D9F6
:102E3000DAF8001000786B46497C0122FFF739F878
:102E400048B99DF80000C00606D5FFF750FB6FF0AB
:102E50000100BDE8FE8F0AE0DAF80010DAF804009D
:102E60006B46C97A00782246FFF723F808B1584626
:102E7000EFE7B7FBF4F00C99401E087000203070AB
:102E8000A4B39AF8101050460A07694613D5BDF846
:102E90000020062552BAA8F80020BDF8022052BA38
:102EA000A8F80220BDF8042052BAA8F8042032780D
:102EB00042F008023270A5421AD0027C520617D5A1
:102EC0004A19128852BAA9F80020327842F040021A
:102ED00032700CE05400002000000C42000003435C
:102EE0000000834233330342333383411EE0AD1C81
:102EF000A5420CD0027C920609D54A19AD1C128855
:102F000052BAA9F80220327842F020023270A5426B
:102F10000CD09AF81000C00608D54819008840BAAD
:102F2000A9F80400307840F010003070002090E7DD
:102F30002DE9F843F84F0546164697F824008946D0
:102F40004FF0FF38D8B1B87AC8B138686B46022262
:102F5000817A78680078FEF7ACFF80B9BDF8000090
:102F600044BAAC4202D20020307008E03868EAB2BD
:102F70004B46C17A78680078FEF79BFF08B140465F
:102F800017E4B4FBF5F0401E3070002011E4E24974
:102F900081F82200002070472DE9FE4F05460120F0
:102FA000DD4E8DF800004FF000088DF8018030688C
:102FB0000C461746817C70686B4602220078FEF74B
:102FC000FDFF4FF0FF3A00287AD1C82001F0BFFB87
:102FD0008DF8008030686B460122C17B70680078F4
:102FE000FEF7ECFF0028EFD130686B4601224179F3
:102FF00070680078FEF7E2FF0028E5D130686B4684
:103000000122817C70680078FEF7D8FF0028DBD1B0
:1030100030686B460122C17D70680078FEF7CEFFF4
:103020000028D1D130686B460122017970680078A0
:10303000FEF7C4FF0028C7D14FF00C098DF80090AF
:1030400030686B460122017970680078FEF7B6FFA0
:10305000002835D10F2001F07AFBB06A6B460122BF
:10306000407A8DF800003068817870680078FEF74B
:10307000A5FF002824D1B06A6B460122007A8DF8A2
:1030800000003068417870680078FEF797FF0028EC
:1030900073D1B06A807A0FB140F0E0008DF8000083
:1030A00030686B460122817970680078FEF786FFF0
:1030B000002862D12FB1B06AC07A40F0E00001E090
:1030C0004AE018208DF8000030686B460122C17973
:1030D00070680078FEF772FFF0BB17B1C82001F0EE
:1030E00036FB40208DF8000030686B4601220179E4
:1030F00070680078FEF762FF70BB78208DF80000E2
:1031000030686B460122417970680078FEF756FFFF
:1031100010BB322001F01BFB8DF800803068474661
:103120006B464179706801220078FEF747FF98B935
:1031300031687068B046897A00786B460222FEF7E3
:10314000B8FE48B9BDF80000AF6040BAB0FBF9F076
:103150006F60C6B22F6000E00FE0A7606760276075
:10316000002738E0D8F80010D8F804006B46C97A78
:1031700000780C22FEF79DFE08B1504669E6BDF8C6
:103180000000236840BA02B2BDF802001A4440BAF7
:1031900001B2BDF804002260626840BA1144616067
:1031A000A16800B20844A060BDF806002B6840BAD0
:1031B00002B2BDF808001A4440BA01B2BDF80A00D4
:1031C0002A606A6840BA11446960A96800B208447C
:1031D0007F1CFFB2A860B742C4D328688322C117FE
:1031E000090441EA1041000400230BF0DBF93246E8
:1031F00000230BF0D7F9286068688322C1170904FF
:1032000041EA1041000400230BF0CCF932460023C0
:103210000BF0C8F96860A8688322C117090441EA65
:103220001041000400230BF0BDF9324600230BF0DF
:10323000B9F9A86020684FF40065C117090441EA94
:10324000104100042A4600230BF0ACF9324600235B
:103250000BF0A8F9206060682A46C117090441EA0A
:103260001041000400230BF09DF9324600230BF0BF
:1032700099F96060A0682A46C117090441EA104123
:10328000000400230BF08EF9324600230BF08AF97C
:10329000A060002802DDA0F5803001E000F580305C
:1032A000A0600020D5E538B51B4C94F8241081426D
:1032B0001DD0002500B394F82500D0B10020FEF702
:1032C000BFFF0020FFF7A9F8E08CFFF77EFA8DF82A
:1032D000005060686B46012200782321FEF76EFEE5
:1032E000012084F82400FEF7ABFFFFF700F900206F
:1032F00038BD4FF0FF3038BD0020FEF7A1FF207C25
:103300008DF8000060686B46012200782321FEF7EB
:1033100055FE84F82450E8E7540000202DE9F047DA
:10332000F84E82468AB096F824000F4620B100205D
:10333000FFF7B9FF012500E0002507A8FFF78BFC88
:1033400006A8FFF7A0FC09A8FFF7B8FC08A8FFF73C
:10335000CFFC96F80A9096F8108000240022394697
:103360005046FFF719FE10B1641C022CF6DB022C4C
:103370001AD00024012203A96846FFF70DFE10B100
:10338000641C022CF6DB022C0ED003A9384600F098
:1033900059FBC7B26946504600F08CFB10F0FF0F96
:1033A0004FF0000402D002E0002403E001240FB932
:1033B00044F00204FF2030727072F0724FF6FF7119
:1033C000F181B072307401203073BDF81C00FFF73A
:1033D00067FA9DF81800FFF732FABDF82400FFF7EE
:1033E00068F9BDF82000FFF7F0F94846FEF7BCFF8A
:1033F0004046FFF734F915B10120FFF754FF0AB03A
:103400002046BDE8F087F8B517000D464FF0FF34B1
:103410001FD0BC4EB17AE1B1010A8DF80010C0B2E4
:103420008DF80100411970684289914211D83168C4
:1034300000786B46097E0222FEF7C0FD48B930686D
:10344000EAB23B46417D70680078FEF7B7FD002880
:1034500000D02046F8BDF8B517000D464FF0FF34F8
:103460001FD0A84EB17AE1B1010A8DF80010C0B2A8
:103470008DF80100411970684289914211D8316874
:1034800000786B46097E0222FEF798FD48B9306845
:10349000EAB23B46417D70680078FEF70AFD0028DD
:1034A00000D02046F8BD2DE9FF4FDFF858A20546B1
:1034B00085B09AF82500914688464FF0FF3BC0BB87
:1034C000B8F1000F35D000241FE0281B102800DDC4
:1034D000102086B208EB04073A4631462046FFF733
:1034E00092FF30BB6A4631462046FFF7B4FF00BB6F
:1034F0003846324669460BF059FA20B16FF00100A8
:1035000009B0BDE8F08FA01984B2AC42DDD34FEA18
:1035100019208DF810008DF81190DAF8000054464B
:1035200004AB817EDAF8040002220078FEF746FD43
:1035300008B15846E4E7012084F825000898E084A3
:103540000020DDE76F4991F82410017000207047DA
:103550004FF0FF3070474FF0FF3070474FF0FF30B3
:1035600070472DE9F84F674C0F4604F1160115001E
:103570004FF0FF3B8A464FF000094FF0010877D02B
:10358000B0F5FF5F01D9FF2605E0202801D2012612
:1035900001E0C0F3471607B90127282D6AD8607DDE
:1035A000F0B994F8240028B10020FFF77CFE84F8DD
:1035B000208001E084F820905046FFF74CFB5148F2
:1035C0001830FFF760FB4F481A30FFF777FB4D4884
:1035D0001C30FFF78DFBA07AA0774A48217CC17789
:1035E0000020FEF72DFE0020FFF796F88DF80090E2
:1035F00020686B460122817860680078FEF7DEFC67
:10360000002837D140208DF8000020686B46012249
:10361000C17B60680078FEF7D1FC50BB8DF800607C
:103620008DF8017020686B460222017A606800788C
:10363000FEF7C4FCE8B9052001F089F8607A072696
:1036400006EBC0008DF8000020686B460122C179AE
:1036500060680078FEF7B2FC58B920208DF80000B1
:10366000012D08D0052D0AD840468DF801800DE0C7
:103670001DE01FE04CE048468DF8019006E0142D57
:1036800001D8022000E003208DF80100C0B206EB53
:1036900080108DF8010020686B460222817C6068F2
:1036A0000078FEF78BFC28B984F8158027E000200D
:1036B0000A5C4AB3FF2020726072E0724FF6FF711D
:1036C000E181A072207484F80C80A07FFEF74CFE8C
:1036D000E08AFFF7E5F8207EFFF7B1F8608BFEF790
:1036E000E8FFA08BFFF771F8E07FFEF7B8FF94F8D2
:1036F000200010B10120FFF7D6FD84F815900020BE
:10370000BDE8F88F54000020FFE7401C0C28CFD301
:103710005846F5E710B588B002A905A8FFF7FEFDE9
:10372000032802D0012008B010BD6846FFF7F2FA66
:1037300005980EF0A9F900990C460EF0D1F90EF09B
:1037400067F9059006980EF09FF921460EF0C8F92A
:103750000EF05EF9069007980EF096F921460EF0ED
:10376000BFF90EF055F9079005A800F0EAFA01A894
:10377000FFF7E6FABDF8040002994143029103996C
:10378000414303910499414302A8049100F03BFB9B
:103790000020C8E790F90010002902DD4FF000007A
:1037A000704702DA4FF00400704790F901100029C9
:1037B00002DD4FF00100704702DA4FF0050070475C
:1037C00090F90200002802DD4FF00200704702DA93
:1037D0004FF0060070474FF00700704700B50246F3
:1037E000FFF7D8FF0346D01CFFF7D4FF43EAC0031E
:1037F000901DFFF7CFFF43EA801080B200BD10B5E7
:10380000FEF70FFCFFF780F808B10A2010BD782002
:10381000FEF7AAFD10F0FF0F01D0012010BD7820A7
:10382000FEF71DFF10F0FF0F01D0022010BD642035
:10383000FEF7CBFF10F0FF0F01D0032010BD00F00A
:10384000FDF910F0FF0F01D0042010BDF148FFF783
:10385000C5FF00F0FBF910F0FF0F01D0052010BDEF
:1038600040F2731000F03DFD10F0FF0F01D0062074
:1038700010BD642000F02EFB10F0FF0F01D00720D8
:1038800010BDFFF747FF08B1082010BD0120FFF76A
:103890000AFD10F0FF00F8D0092010BD2DE9F74F08
:1038A0008EB00CAD0AAECDE900650BAB02AA08A93B
:1038B00006A800F023FECDE9006504460BAB02AA82
:1038C00008A906A800F01AFE10B1E0B211B018E67F
:1038D000BDF82800C0057DD502980EF0D5F86FF030
:1038E0001D0421460EF09FFA824603980EF0CCF894
:1038F00021460EF098FA814604980EF0C5F821464C
:103900000EF091FA804605980EF0BEF821460EF0B2
:103910008AFA0646012150460EF085FA07464146CE
:103920000EF0DEF804464FF0404148460EF0D8F85D
:10393000054631460EF0D4F821460DF03FFF0DF05C
:1039400011FF0CF0A9FD4FF0663B5A46B24B0DF04B
:103950002FFC0DF099F90E990860012140460EF0F8
:1039600062FA414600900EF0BBF8044628464946EC
:103970000EF0B6F821460EF07FF94FF07E510DF0B3
:103980001DFF0DF0EFFE04460D46384649460EF089
:10399000A7F80746314600980EF0A2F839460DF018
:1039A0000DFF0DF0DFFE22462B460CF0BDFF5A4600
:1039B000994B0DF0FDFB0DF067F90F99086031464A
:1039C00008460EF08DF80746414608460EF088F886
:1039D000054600E034E0494608460EF081F804460A
:1039E000514608460EF07CF821460DF0E7FE2946C8
:1039F0000EF042F939460EF03FF90DF0B3FE0446E1
:103A00000D46314650460EF06BF806464146484694
:103A10000EF066F831460DF0D1FE01210EF003FAEA
:103A20000DF0A0FE22462B460CF07EFF5A467A4B44
:103A30000DF0BEFB0DF028F910990860002045E755
:103A4000022043E72DE9FE4F80460F4600256846D9
:103A500000F091F800246FF00F0AE946012658F8AB
:103A6000240057F82410401A00D540420EF00CF8FC
:103A700051460EF0D8F959F8241011F0FF4F0BD031
:103A80000DF004FF4FF07E510EF0F6F8634920F080
:103A90000040884205DC07E06149084461498842EA
:103AA00002D306FA04F00543641C032CD7DB284636
:103AB000BDE8FE8F2DE9F84F8246564889462C38DE
:103AC000002540686B46032200780D21FEF7F1F9CE
:103AD00008B1072014E69DF80000002400F01F0044
:103AE0008DF800009DF801006F4600F01F008DF872
:103AF00001009DF802004FF0010800F01F008DF852
:103B000002005AF8241059F82400081A00D540423F
:103B10000DF0BAFF6FF00F010EF085F90646385D23
:103B2000E0B1414ADFF804B104E0594610460DF017
:103B3000D7FF0246385D401E10F0FF003855F4D123
:103B4000114630460DF0A2FE4FF07E510EF094F873
:103B5000324920F00040884205DC07E03448304418
:103B6000B0F1D97F02D908FA04F00543641C032C94
:103B7000C7DB2846C4E52DE9FC47054625486B46CA
:103B80002C38042240680D210078FEF792F910B11C
:103B90000720BDE8FC879DF800001C2101EAD00247
:103BA0009DF80300DFF88C90C0F301131A438DF8E1
:103BB00004209DF80120C0F3810301EAD2021A43D8
:103BC0008DF805209DF8022000F0030001EAD201E3
:103BD00001430024184F8DF80610A04601AE305D59
:103BE00010B145F8249009E045F824800CE055F820
:103BF000240039460DF074FF45F82400305D401E66
:103C000010F0FF003055F2D1641CE4B2032CE6D36F
:103C10000020BEE78000002066A64C40295C0F3ED5
:103C2000666666C19A99D9000000C84154E3853F91
:103C30000000E0BE7B14AE3E1D5A843FC8234FF403
:103C40008062FE4940F6F630FFF72DBC2DE9FF41BA
:103C50000446FBA002AB00680290FAA00068039043
:103C6000F9A00668F9A0056804F00300195C8DF856
:103C70000010C4F3C1015A5C8DF80120C4F3811215
:103C80009B5C8DF8023003AB185C8DF80400585C27
:103C90008DF80500985C8DF806006A46032140F215
:103CA0002640FFF7B0FB4FF0FF37E0BB01AA03212E
:103CB00040F22A40FFF7A7FBA8BBCDE900656007EB
:103CC0000BD59DF8000040F001008DF800009DF834
:103CD000040040F001008DF80400A0060BD59DF80B
:103CE000010040F001008DF801009DF8050040F052
:103CF00001008DF80500E0050BD59DF8020040F0AD
:103D000001008DF802009DF8060040F001008DF8DA
:103D100006006A4603214FF48860FFF774FB10B970
:103D200001AA032100E004E040F23140FFF76BFB01
:103D300018B1384604B0BDE8F081C54804810020C0
:103D4000F8E7F8B5C249098901F0030250F82240AA
:103D50004A0700D56442C1F3C10250F822308A06F6
:103D600000D55B42C1F3811250F82220C80500D56E
:103D70005242B84984FB0140850045EA947083FBB8
:103D8000014382FB0121950F45EA8105010E8DF863
:103D90000010010C8DF80110010A8DF80210A40F1B
:103DA0008DF8030044EA83046A4604214FF47470DA
:103DB000FFF729FB4FF0FF3688B9200E8DF8000081
:103DC000200C8DF80100200A8DF802008DF80340C8
:103DD0006A4604214FF47570FFF715FB08B13046B1
:103DE000F8BD280E8DF80000280C8DF80100280A77
:103DF0008DF802008DF803506A4604214FF4767066
:103E0000FFF701FBF8BD2DE9FF41044603A8FEF7CB
:103E100097FFBDF80C00420CC3038D48018901F0E7
:103E200003004D0754F8200000D54042C1F3C105FE
:103E30008E0654F8255000D56D42C1F38116C90590
:103E400054F8264000D56442A0FB0367C11701FB6C
:103E5000037100FB0210810041EA9670A5FB036725
:103E6000E91701FB037105FB02118D0045EA96710C
:103E7000A4FB0367E51705FB037304FB0232930001
:103E800043EA9672030E8DF80030030C8DF8013072
:103E9000030A8DF802308DF80300080E8DF8040037
:103EA000080C8DF80500080A8DF80600100E8DF834
:103EB0000800100C8DF80900100A8DF80A008DF822
:103EC00007108DF80B206A460C214FF42570FFF780
:103ED0009AFA2FE730B504465FA185B007C98DE88F
:103EE00007004FF0FF35C82C16D8C820B0FBF4F1FE
:103EF000491E080A8DF80C008DF80D1003AA022146
:103F000040F21620FFF77FFA30B96A460C2140F6DE
:103F1000C120FFF778FA10B1284605B030BD4C48F3
:103F200084810020F9E74A4989890180002070478F
:103F30002DE9FC41054640074FF0FF367CD0B1F536
:103F4000C86F79D808460DF0B7FD46490DF09EFCC4
:103F5000074601A8FEF797FE9DF80400022806D048
:103F600004280DD008282ED0102865D134E00E2169
:103F700038460DF058FF0DF067FD84B23A4907E06E
:103F80000D2138460DF04FFF0DF05EFD374984B22C
:103F900038460DF0A5FD0DF057FD210A8DF80010F3
:103FA00080B28DF80140010A8DF802108DF80300EF
:103FB000E8076C4620D0224602214FF4EA70FFF752
:103FC00022FAC8BB11E00C2138460DF02CFF0DF091
:103FD0003BFD84B22649DBE70B2138460DF023FF79
:103FE0000DF032FD84B22349D2E7A21C02214FF426
:103FF0009270FFF708FAF8B9A8070DD56A460221B2
:104000004FF4EC70FFF7FFF9B0B9A21C02214FF496
:104010009470FFF7F8F978B9680731D56A4602213C
:104020004FF4EE70FFF7EFF930B9A21C02214FF404
:104030009670FFF7E8F91FE01FE00000F41E01088A
:104040004CCD6C000CC92C00365676002646660016
:10405000D41A002009E3CA02FEF2ABC4AAF1DFDFE2
:10406000BBAFDFDF00004843000040460000C04512
:10407000000040450000C04410B13046BDE8FC815E
:104080000020FBE708B500218DF80010C10702D021
:1040900030218DF80010810705D59DF8001041F002
:1040A0000C018DF80010400705D59DF8000040F088
:1040B00003008DF800006A4601214FF4A470FFF759
:1040C000A2F908BD08B560B1042800D90420401E3B
:1040D0008DF800006A46012140F24F10FFF793F976
:1040E00008BD0120F3E70521B0FBF1F008B5010A96
:1040F0008DF800108DF801006A4602214FF4EF7030
:10410000FFF781F908BD0521B0FBF1F008B5010A00
:104110008DF800108DF801006A4602214FF4ED7011
:10412000FFF771F908BD4FF47A7290FBF2F008B511
:104130004843010E8DF80010010C8DF80110010AA2
:104140008DF802108DF803006A4604214FF4AE701A
:10415000FFF759F908BD0521B0FBF1F008B5010AD8
:104160008DF800108DF801006A4602214FF4AD7001
:10417000FFF749F908BD0521B0FBF1F008B5010AC8
:104180008DF800108DF801006A4602214FF4AC70E2
:10419000FFF739F908BD38B504004FF0FF3506D0F8
:1041A0006A4604214FF45870FFF755F908B12846C4
:1041B00038BD00989DF8031000BA20F0FF000843B6
:1041C0002060002038BD08B5010E8DF80010010CEC
:1041D0008DF80110010A8DF802108DF803006A466F
:1041E00004214FF45870FFF70EF908BD38B50400EC
:1041F0004FF0FF3506D06A4604214FF47170FFF787
:104200002AF908B1284638BD009800BA20F0FF010D
:104210009DF80300014301EB810080002060002035
:1042200038BD1421B0FBF1F008B5010E8DF8001077
:10423000010C8DF80110010A8DF802108DF80300B1
:104240006A4604214FF47170FFF7DDF808BD08B528
:1042500060B120208DF8000028208DF8010030206A
:104260008DF8020038208DF8030004E0A322042119
:1042700068460AF016FC6A46042140F69E20FFF7C5
:10428000C2F8FEF734F908BD08B560B1C0208DF85A
:104290000000C2208DF80100C4208DF80200C62065
:1042A0008DF8030004E08B22042168460AF0F9FB34
:1042B0006A46042140F69820FFF7A5F8FEF717F9A3
:1042C00008BD0EB54FF4976308B1E1A000E0E3A08C
:1042D00007C88DE807006A4609211846FFF793F8DA
:1042E0000EBD3EB5044602208DF80000CA208DF8B0
:1042F0000100E3208DF8020009208DF803006A46D2
:1043000004216820FFF77FF8A3208DF800006106E4
:1043100009D5C0218DF80110C8218DF80210C221E5
:104320008DF8031005E08DF801008DF802008DF87E
:10433000030014F4C07F09D0C4218DF80410CC21EF
:104340008DF80510C6218DF8061005E08DF80400E3
:104350008DF805008DF806008DF808008DF807002F
:104360008DF809006A460A2140F6A720FFF74BF8AE
:10437000A0074FF0D80503D020208DF8000001E001
:104380008DF800506A46012140F6B620FFF73BF851
:10439000A00601D5012000E00020FFF792FF14F4F1
:1043A000C07F1ED0E0050AD5B2208DF800008B201A
:1043B0008DF80100B6208DF802009B2009E0B020A6
:1043C0008DF8000080208DF80100B4208DF80200E7
:1043D00090208DF803006A46042140F6A220FFF7E2
:1043E00012F8E0074FF40B6323D0F8208DF800009B
:1043F0006A4601211846FFF706F8FA210720FFF761
:1044000097FD0720FFF73EFE0120FFF75BFE6420CB
:10441000FFF769FE4FF4FA70FFF775FEC821924866
:10442000FFF781FE2820FFF796FE0A20FFF7A3FE84
:1044300006E08DF800506A4601211846FEF7E3FFBA
:10444000A00703D5D9208DF8000001E08DF80050B9
:104450006A46012140F23D70FEF7D5FF600701D5A5
:10446000012000E00020FFF70FFFE00601D501204A
:1044700000E00020FFF7EBFE7C4D44F0080068816F
:10448000FEF735F80020A873600601D50620A87352
:1044900014F4C07F02D0A87B801DA87314F0140F01
:1044A00002D0A87B1030A873A00702D0A87B001D03
:1044B000A87300203EBD6D494989018000207047E6
:1044C00000B56BA187B00EC98DE80E006BA10DF190
:1044D0000C0C0EC98CE80E0040F68223012807D090
:1044E000022803D04FF0FF3007B000BD6A4600E05D
:1044F00003AA0B211846FEF786FFF5E72DE9F04FDA
:1045000089B01646DDE912520024DFF860810F46BB
:1045100081462C809B46A24698F80E006946FEF71D
:1045200007FD18B1142009B0BDE8F08FB8F80A00F3
:1045300010F0140F3DD0009909BA21F0FF0C9DF83E
:1045400003104CEA010CC6F800C0019909BA21F029
:10455000FF039DF807100B43736002999DF80B2031
:1045600009BA21F0FF011143B160039A9DF80F4091
:1045700012BA22F0FF022243F2604FEA2C460914DD
:104580001B1412147643494303FB036302FB02111D
:1045900019441024A1F17061B1F1007F05D9FDF734
:1045A000A6FFA5F800A01E20BDE7298841F4807170
:1045B000298041066A460ED51119A41D0B885BBAE5
:1045C0003B804B885BBA7B80898849BAB98029884F
:1045D00041F00801298010F4C07F11D01119A41DE9
:1045E0000B885BBAA9F800304B885BBAA9F8023097
:1045F000898849BAA9F80410298841F070012980F6
:10460000800718D01444E07800F0C00500F03F01A6
:104610006078C00707D0C80801F00701D8F800206B
:10462000491C02B190476078000704D5D8F80410FF
:1046300009B1A80988475846FEF701FA002072E739
:104640000A49086000207047084948600020704708
:10465000B8AAB38DB4980D355D000000B8AAAAAA17
:10466000B088C3C5C700000009E3CA02D41A0020FD
:10467000D8B1B9F38BA391B609B4D900DAB1B9F3C3
:104680008BA391B6DAB4DA0008B5684603F0CEF829
:1046900008BD08B5684603F002F908BD08B56A46CA
:1046A000082106F0F3FA08BD364810B50078012855
:1046B00007D103F049F806F012FCBDE8104003F002
:1046C0004EB810BD10B56FF0040000F0B6FA2E48D9
:1046D0002E492F4B0068304CB0FBF1F2B0FBF1F0EB
:1046E0001A702C4A1168B4FBF1F1414310684FF481
:1046F0007A72B2FBF0F058804FF0E020026942F08D
:10470000020202614161016941F00101016110BDD4
:10471000F8B54FF0E02700247E691D49097800FBB9
:1047200001F5684603F082F8B969B8698842FCD09F
:1047300002D2A1EB000102E0A6EB000211440C44FE
:104740000146AC42F1D3684603F0A9F8F8BD70B554
:1047500004460C48007878B11048007860B90C4DD8
:104760006888844203D3B4FBF0F0FFF797FF6888B2
:10477000B4FBF0F100FB11444FF47A706043BDE8E4
:104780007040C5E7DD0000203C00002000127A00E8
:104790008A000020C82C010840420F00DC000020E5
:1047A000704743490A885206FCD5414AC1B2121DDE
:1047B00011807047F0B5064687B0012144F204002D
:1047C00000F021FE3A4D284600F07CFB6815ADF85C
:1047D000100003248DF812401820364F8DF8130076
:1047E00004A9384600F093FA2815ADF8100004200B
:1047F0008DF8130004A9384600F089FA25208DF8B9
:1048000014008DF815408DF8164001208DF8170022
:1048100005A800F0D2F90021ADF80810ADF8041099
:104820000C20ADF80610ADF80C10ADF80A0000969B
:104830006946284600F076FB012240F225512846C1
:1048400000F0EDFB0121284600F0DFFB07B0F0BDD2
:1048500070B502F079FF164C40F22551204600F069
:1048600095FCE0B1204600F02AFC134AC1B2108842
:10487000030414D444044FF0000304D50A290DD1D5
:1048800040F4004011E00D290DD0C0F30D040B4D94
:10489000401C80B229551080C72800D91380BDE87C
:1048A000704002F05CBF40F480401080F7E70000E9
:1048B00000380140000801408E000020E41A00206A
:1048C0000020A54A01464FF496731154401C80B253
:1048D0009842FAD3A1480180704710B5A04A4FF022
:1048E000000130B11446104601F053FC012120466E
:1048F00000E01046BDE8104001F04EBA70B502F07D
:1049000023FF984C40F22551204600F03FFCB0B107
:10491000204600F0D4FB914CC5B22088B0F5967FBC
:1049200011D200218E4801F034FC208810B90120FA
:10493000FFF7D3FF884920880D54401C2080BDE834
:10494000704002F00CBF40F40040F7E77FB50D4621
:1049500004460121042000F05FFDADF80440002072
:10496000ADF800507E4CADF80600ADF80200694687
:10497000204600F069FF01221146204601F021FA8D
:104980001E208DF80C0001208DF80D0002218DF8FD
:104990000E108DF80F0003A800F00FF97FBD70B561
:1049A0000C46064601218CB01546084600F022FD53
:1049B000304601F029FC00211020CDE902018020C1
:1049C000CDE904104001CDE9081006910A91079144
:1049D00069463046CDE9004501F083FC0CB070BD5E
:1049E0002DE9F041804686B00121042000F00BFD46
:1049F0000121480400F010FD5A4E304600F062FAE2
:104A00000424ADF8104003258DF812501820564F9D
:104A10008DF8130004A9384600F079F90820ADF8A4
:104A200010008DF8134004A9384600F070F90024F6
:104A3000ADF808400C20ADF80440ADF80A00CDF800
:104A40000080ADF80640ADF80C406946304600F0F5
:104A500069FA01228021304600F0F9FA3E4A311D00
:104A6000C83A4248FFF79BFF0121304600F0CDFADB
:104A7000012240F22551304600F0D1FA26208DF86F
:104A8000140002208DF815008DF8165001208DF8C5
:104A9000170005A800F091F841F61F416320FFF7C9
:104AA00055FF2E4804800020FFF717FF06B0BDE831
:104AB000F08170B504462B4D0AE04021284600F0F5
:104AC0005BFB0028F9D014F8011B284600F0F3FA2C
:104AD00020780028F1D170BD70B50C460546002144
:104AE00001F029FC2146284601F038FC2846BDE8A3
:104AF0007040012101F01FBC0FB4174810B503AA84
:104B0000C838029909F072FD184C204601F028FCC3
:104B10000028FAD11048C83809F098FFC1B22046E1
:104B2000FFF7DAFF10BC5DF814FB10B50C4C012147
:104B3000204601F05AFB00280CD00848018841F4B7
:104B4000004101800121204601F05BFBBDE81040DF
:104B50000020C2E610BD0000781C00209400002058
:104B6000000800400044004000080140800002406E
:104B70000948804709480047FEE7FEE7FEE7FEE7F1
:104B8000FEE7FEE7FEE7FEE7FEE7FEE7044805492D
:104B9000054A064B70470000AD10000831010008BF
:104BA000089300200899002008950020089500200F
:104BB0002849084328490860704730B50F23C27858
:104BC00001780125F2B1244A126801F1E02102F4D2
:104BD000E062C2F5E062120AC2F10404D3404278F6
:104BE000A24084781C401443220181F800240078FC
:104BF00000F01F018D404009800000F1E020C0F866
:104C0000005130BD01F01F0085404809800000F1CF
:104C1000E020C0F8805130BD104A114001430E48D9
:104C2000001F016070470C4A121D0029116801D055
:104C3000014300E08143116070474FF0E0210428F8
:104C4000086903D020F004000861704740F00400B8
:104C5000FAE700000000FA050CED00E080FFFF1FFE
:104C60008F4910B5884206D10121042000F0DDFBF8
:104C7000002104203BE08B49884206D10121082015
:104C800000F0D3FB0021082031E08749884206D19B
:104C90000121102000F0C9FB0021102027E08349EA
:104CA000884206D10121202000F0BFFB00212020F6
:104CB0001DE07F49884206D10121402000F0B5FB6C
:104CC0000021402013E07B49884206D10121802049
:104CD00000F0ABFB0021802009E0774988420AD12F
:104CE00084150121204600F0A0FB00212046BDE8EC
:104CF000104000F09ABB10BD10B50121084600F02D
:104D000094FB0021BDE81040012000F08EBBF0B5FF
:104D1000CC78002204F00F03E40601D58C782343FD
:104D20000C784FF00F0C14F0FF0F4FF0010E1BD05A
:104D300005680E880EFA02F42640A64210D19600AD
:104D40000CFA06F725EA070703FA06F5CE783D4385
:104D5000282E02D0482E02D002E0446100E0046117
:104D6000521C082AE5D305600A88FF2A1CD944682A
:104D7000002202F108060EFA06F50E882E40AE4219
:104D80000ED196000CFA06F7BC4303FA06F7CE786C
:104D90003C43282E00D14561CE78482E00D10561D4
:104DA000521C082AE5D34460F0BD4FF6FF71018024
:104DB000022181700421C170704702460020926870
:104DC0000A4200D001207047806880B270470246D6
:104DD0000020D2680A4200D001207047C06880B22B
:104DE000704701617047416170470AB101617047C6
:104DF00041617047C160704741F4803282618161D6
:104E000082618169806970472C4B10B51A684FF632
:104E10008074224042EA00100843186010BD2849FF
:104E2000C8617047F0B5254C002801DAE36900E05D
:104E30006368450D2E0185B2C0F30157B540C0F33C
:104E40000342032F05D0C6020AD503269640B3437A
:104E500007E023F07062636823F07063636002E030
:104E6000AB4343F0706201B12A43002801DAE261EA
:104E7000F0BD6260F0BD10B58A0721F003040F4950
:104E8000120F21440F238C6893409C438C608B68E5
:104E9000904003438B6010BD0949C1F8DC007047A6
:104EA00000080140000C01400010014000140140C6
:104EB00000180140001C014000200140000001409A
:104EC00000002042C44910B588420AD101218C0358
:104ED000204600F0AAFA2046BDE81040002100F06C
:104EE000A4BABE49884202D101214C0410E0BC4959
:104EF000884202D101218C040AE0BA49884202D1D9
:104F00000121CC0404E0B84988420AD101210C05F2
:104F1000204600F093FA2046BDE81040002100F042
:104F20008DBA10BD30B50446008A85B00D464CF6EA
:104F3000FF710840E98801432182A0894EF6F311F0
:104F40000840A9882A8911436A8902431143A18133
:104F5000A08A4FF6FF410840A9890143A182684613
:104F600000F006FA9C48844201D1039800E00298C0
:104F7000A189090400EBC00101EB0010296801D5EB
:104F8000490000E08900B0FBF1F06422B0FBF2F1CF
:104F900009010B096FF018056B4300EB8300A3892F
:104FA0001D044FF0320306D503EBC000B0FBF2F056
:104FB00000F0070005E003EB0010B0FBF2F000F09A
:104FC0000F000843208105B030BD4FF41651016039
:104FD00000218180C18001810C2242818181704742
:104FE00010B5028A4FF2FF031A400B884C88234306
:104FF0008C88C9880C4323431343038210BD0021CE
:10500000018041808180C18070470029818902D060
:1050100041F4005101E021F400518181704710B545
:10502000C1F3421301F01F040121A140012B07D05D
:10503000022B07D01430002A026805D00A4304E08E
:105040000C30F8E71030F6E78A43026010BD002A02
:10505000828A01D00A4300E08A4382827047028A32
:1050600022F00F020282028A0A430282704782897A
:1050700022F40062828182890A438281704700297A
:10508000818902D041F0020101E021F00201818119
:105090007047028A22F020020282028A0A430282B8
:1050A00070470029018A02D041F4804101E021F4D7
:1050B000804101827047C1F3080181807047808878
:1050C000C0F308007047818941F001018181704778
:1050D000028BD2B20283028B42EA01210183704724
:1050E000028B02F47F420283028B0A4302837047E1
:1050F0000029818A02D041F0200101E021F0200145
:10510000818270470029818A02D041F0100101E0BC
:1051100021F01001818270470029818A02D041F07C
:10512000080101E021F0080181827047002981898E
:1051300002D041F4004101E0C1F30E0181817047CA
:105140000029818A02D041F4006101E021F400616C
:1051500081827047828A22F004028282828A0A4314
:10516000828270470029818A02D041F0020101E069
:1051700021F00201818270470246002012880A4213
:1051800000D001207047C9430180704770B501F01D
:105190001F0501260024C1F3421306FA05F2012B74
:1051A0000FD0022B0FD0838A4FEA112100881342BF
:1051B00006FA01F600EA060001D000B101242046FB
:1051C00070BD8389F0E7038AEEE70A0A0121914066
:1051D000C94301807047000000380140004400408E
:1051E00000480040004C004000500040A5480168C5
:1051F00041F0010101604168A34A1140416001682A
:10520000A24A11400160016821F4802101604168D7
:1052100021F4FE0141604FF41F01816070479949FC
:105220000A6822F480320A600A6822F480220A6046
:10523000B0F5803F07D0B0F5802F03D1086840F467
:10524000A02008607047086840F48030F9E7034602
:10525000002059098B4A01290AD002290AD0516A33
:1052600003F01F02012393400B4200D0012070473E
:105270001168F5E7116AF3E718B500204FF4A06450
:1052800000903120FFF7E3FF0099491C0091A142F3
:1052900001D00028F5D03120FFF7D9FF002800D039
:1052A000012018BD774A116821F0F80141EAC000D9
:1052B00010607047764908607047724B5A6808431F
:1052C00022F47C1210435860704771490866704799
:1052D0006C4A516821F003010143516070476948ED
:1052E000406800F00C007047664A516821F0F001F8
:1052F000014351607047634A516821F4E061014302
:10530000516070475F4A516821F4605141EAC00022
:10531000506070475B4A0029517A01D0014300E098
:105320008143517270475A49C1F8D8007047554AB5
:10533000516821F4404101435160704751490022B6
:1053400081F8202081F82020012802D0042802D1F1
:10535000052081F8200070474E4908607047494990
:105360000A6A02430A6270474A4944390860704732
:1053700030B5444A5168484B11F00C0103D0042960
:1053800001D0082901D0036012E05168536801F48C
:1053900070114FF0020413F4803F04EB914102D0EE
:1053A00053689B0301D53D4B00E03B4B59430160E3
:1053B00051680F2303EA1111394B5C5C0168E1402D
:1053C00041605468072505EA14241C5D21FA04F4A1
:1053D0008460546805EAD4241B5DD940C1605268DA
:1053E000032303EA92322E4B1B1F9A5CB1FBF2F1AE
:1053F000016130BD234A0029516901D0014300E019
:105400008143516170471F4A0029916901D00143CE
:1054100000E08143916170471A4A0029D16901D0A7
:10542000014300E08143D1617047164A0029D168E9
:1054300001D0014300E08143D1607047114A002947
:10544000116901D0014300E08143116170471149A6
:105450004039086070470E49C86470470949C871EF
:1054600070470848416A41F0807141627047054ABF
:105470000146002092680A4200D00120704701498D
:1054800088727047001002400000FFF8FFFFF6FE30
:10549000000042428004424200127A0000093D00AE
:1054A0009A000020994910B588420AD1841401213C
:1054B0002046FFF7BAFF2046BDE810400021FFF765
:1054C000B4BF9349884202D10121041404E09149F8
:1054D00088420AD10121C4132046FFF7AFFF2046BE
:1054E000BDE810400021FFF7A9BF10BD30B502880C
:1054F0004C8802F441530A88CD8822438C882C437F
:1055000022430C8922434C8922438C892243CC8933
:1055100022431A430280828B22F400628283098A2A
:10552000018230BDF0B505460C4602200021AA8B51
:1055300085B001264FF240031A40AA832884AF8B1E
:10554000A268022A21D0A08800B102266846FFF78F
:105550000FFFE1880098B1F5007F2CD07101B0FBFE
:10556000F1F000EB8000A1684000B0FBF1F0401DBD
:1055700080B20A21B0FBF1F000F00101401A4FF6B1
:10558000FF72C0F34F0002EA0121821EFE2A01D3FE
:1055900002200021E288084302432A84208861888F
:1055A000A2890843A18811430843384340F40060AE
:1055B000A88305B0F0BD000AD3E700210180418037
:1055C0008180C180018141818181C1810721018266
:1055D00070470021018041808180C1800222826069
:1055E000818170470029018802D041F0400101E02B
:1055F00021F04001018070470029818B02D041F4E5
:10560000806101E021F480618183704709090123F1
:105610008B40002A828899B201D00A4300E08A4375
:1056200082807047002A828801D00A4300E08A43C2
:10563000828070478181704780897047A1F57E42E2
:105640000188FF3A02D041F4807101E021F48071B9
:10565000018070470029818802D041F0040101E0F7
:1056600021F0040181807047028822F400620280E8
:1056700002880A4302807047018841F4805101800A
:1056800070470029018802D041F4005101E021F463
:10569000005101807047012901D0008B7047808A3A
:1056A0007047008A7047B1F5804F018803D021F41C
:1056B00080410180704741F48041FAE702460020B2
:1056C00012890A4200D001207047C9430181704706
:1056D00030B501F00F030125024605FA03F400205E
:1056E000A3B2090905FA01F49188A4B212892140F4
:1056F0001A4202D0002900D0012030BD01F00F0273
:1057000001219140C94301817047000000300140F0
:1057100000380040003C0040F94910B5884202D1F1
:105720000121C41486E0B0F1804F09D0F5498842C8
:105730000DD101210220FFF781FE0021022064E04B
:1057400001210846FFF77AFE002101205DE0EE49C5
:10575000884206D101210420FFF770FE00210420B9
:1057600053E0EA49884206D101210820FFF766FE8E
:105770000021082049E0E649884206D10121102095
:10578000FFF75CFE002110203FE0E249884206D18D
:1057900001212020FFF752FE0021202035E0DE49C4
:1057A000884202D10121441444E0DC49884202D1FC
:1057B0000121CC043EE0DA49884202D101210C05E6
:1057C00038E0D849884202D101214C0532E0D6495F
:1057D000884206D101214020FFF730FE0021402001
:1057E00013E0D249884206D101218020FFF726FE2E
:1057F0000021802009E0CE4988420AD18415012188
:105800002046FFF71BFE00212046BDE81040FFF7B1
:1058100015BEC849884202D101210C040AE0C649DC
:10582000884202D101214C0404E0C44988420AD1D3
:1058300001218C042046FFF7F8FD2046BDE810400A
:105840000021FFF7F2BD10BD30B50288AC4CB24D5F
:10585000A0420DD0A8420BD0B0F1804F08D0A94B88
:10586000984205D0A84B984202D0A84B984203D149
:1058700022F070034A881A43A54B984206D0A54BE4
:10588000984203D022F44073CA881A4302808A885F
:1058900082850A880285A0420AD0A84208D0A54A7B
:1058A000904205D0A44A904202D0A44A904201D12D
:1058B000097A01860121818230BD30B5028C22F047
:1058C00001020284028C8388048B22F0020224F0FD
:1058D00073050C882C430D8915434A882A43884D4B
:1058E000A8420BD08C4DA84208D0924DA84205D0BA
:1058F000914DA84202D0914DA8420DD122F0080549
:105900004A8923F440732A4322F004058A882A43F3
:105910008D891D43CB892B4383800483C98881866D
:10592000028430BD70B5028C22F010020284028C19
:105930008388048B0D8824F4E6464FF6FF7404EA4E
:10594000052535430E8922F0200204EA0616164387
:105950004A8804EA02123243694EB04202D06E4EC7
:10596000B04215D122F080064A8923F4406304EA4C
:105970000212324322F040068A8804EA02123243BD
:105980008E8904EA86061E43CB8904EA83033343E7
:1059900083800583C9880187028470BD70B5028C3D
:1059A00022F480720284028C8388848B0D8824F018
:1059B000730425430E894FF6FF7422F4007204EA43
:1059C000062616434A8804EA022232434C4EB0426D
:1059D00002D0514EB04215D122F400664A8923F418
:1059E000405304EA0222324322F480668A8804EAA1
:1059F000022232438E8904EA06161E43CB8904EA4A
:105A00000313334383808583C9888187028470BDF3
:105A100070B5028C22F480520284058C8288838BBC
:105A20000C8823F4E6464FF6FF7303EA042434435C
:105A300025F400560D8903EA053535434E8803EAFF
:105A400006362E432E4DA84202D0334DA84205D132
:105A500022F480458A8903EA82122A438280848361
:105A6000C988A0F84010068470BD828B22F4406281
:105A70008283828B4FF6FF7303EA01210A438283FC
:105A80007047828B22F00C028283828B0A438283CE
:105A90007047028B22F440620283028B4FF6FF7341
:105AA00003EA01210A4302837047F0B5048C24F015
:105AB00010040484078B048C4FF6FF7527F473479A
:105AC00005EA03333B4305EA02221A430C4B05EA7D
:105AD000011698420ED0104B98420BD0B0F1804F77
