:020000040800F2
:1000000028AD0020FD1B0008B5090008B70900084D
:10001000B9090008BB090008BD090008000000007C
:10002000000000000000000000000000BF09000800
:10003000C10900080000000043D800083517000877
:10004000171C0008171C0008171C0008171C0008C4
:10005000171C0008171C0008171C0008171C0008B4
:10006000171C0008171C0008171C0008171C0008A4
:10007000171C0008171C0008171C0008171C000894
:10008000171C0008171C0008171C0008171C000884
:10009000171C0008171C0008171C0008171C000874
:1000A000171C0008171C0008171C0008171C000864
:1000B000B3160008171C0008B71B0008171C00081F
:1000C000171C0008171C0008171C0008171C000844
:1000D000171C0008DD18000889190008171C000803
:1000E000171C0008171C0008171C0008171C000824
:1000F000171C0008171C0008171C0008171C000814
:10010000171C0008171C0008171C0008171C000803
:10011000171C0008171C0008171C0008171C0008F3
:10012000171C0008171C0008171C0008171C0008E3
:1001300000F002F800F0B0F80AA090E8000C824449
:100140008344AAF10107DA4501D100F0A5F8AFF226
:10015000090EBAE80F0013F0010F18BFFB1A43F0A5
:100160000103184754870300748703000A444FF0C3
:10017000000C10F8013B13F0070408BF10F8014B06
:100180001D1108BF10F8015B641E05D010F8016B4B
:10019000641E01F8016BF9D113F0080F1EBF10F8AF
:1001A000014BAD1C0C1B09D16D1E58BF01F801CBD2
:1001B000FAD505E014F8016B01F8016B6D1EF9D555
:1001C0009142D6D37047000000230024002500266A
:1001D000103A28BF78C1FBD8520728BF30C148BFAA
:1001E0000B6070476E290CF0678270290CF0D18388
:1001F00066290DF09F8365290DF09C8367290DF01A
:1002000099836129AFF3008003681B0A28BF41F07E
:10021000800169290BF0F28764290BF0EF877529BB
:100220000BF0EC876F290CF05F8378290CF09D832D
:10023000E9290CF0F982E4290CF0F682F5290CF09A
:10024000F382EF290CF05C83F8290CF09C8303689F
:10025000DB0928BF41F0800163290CF06882732913
:100260000CF06D82E3290CF0FB85F3290CF000867D
:10027000002070471FB50CF051FE04000020002143
:100280000DF042FB401C6060002000210DF026FBB9
:10029000E0601FBD10B510BD0CF012FE1146FFF757
:1002A000E9FF00F0AEF90CF0EBFE03B4FFF7F2FF4C
:1002B00003BC01F0BBFA000070477FB5002000903E
:1002C00001900290039000F002FEFF4900206A4670
:1002D0000B5C1354401CC0B20828F9D32E208DF8B3
:1002E000080074208DF8090078218DF80A108DF827
:1002F0000B001146F5A00BF04BFF6C462146F7A012
:100300000BF046FF2146FA4C122220680AF0A7F8AB
:10031000F84D01466870F8A00BF03AFF2068C168FC
:10032000FBA00BF035FF2068C1680AF009FBE64826
:100330000CF09AF8C6B23146F9A00BF029FFFD4B3C
:100340003246E14920680AF0DAF96870E2A12068D3
:100350000BF07CFB6978F8A00BF01AFF20680AF01C
:10036000E1FA68700146FAA00BF012FF7FBD034668
:100370000AE002782A2A02D02C2A02D003E0FF20C9
:100380007047491EC9B2401C0029F2D1C01AC0B240
:10039000704770B50221F448FFF7E9FF05460521D3
:1003A000F148FFF7E4FF0146EF48425D312A03D0F0
:1003B000322A01D0002070BD2C46C34A03E0035D01
:1003C000661B641C93558C42F9DBE749E7A00BF0F0
:1003D000DFFE01F0BBFA012070BD10B5E8A00BF004
:1003E000D7FEEDA00BF0D4FEEEA001F0A8FB642038
:1003F00001F0F3F9C822EFA1F0A001F09FF8C822A4
:10040000F1A1F2A001F09AF8C822EFA1F3A001F047
:1004100095F8C822ECA1F8A001F090F8C822EAA152
:10042000F8A001F08BF8C822E7A1FCA001F086F843
:10043000B0484FF4FA72E4A1406801F07FF86420FC
:1004400001F0CBF901F082FABDE81040F7A00BF003
:100450009FBE0EB5F8A002AF00680023CDE9007082
:1004600099481A461946283806F0B2FCA14CBDF846
:1004700004002080FFF7B1FF4FF4FA6B5A46EFA15A
:10048000EFA001F05BF80146F1A00BF081FE4FF404
:100490007A7A4FF4E1384FF4FA764FF0080945467E
:1004A000404601F0E3FA5246C7A1EDA001F046F83C
:1004B00010B9EFA00BF06CFE304601F08EF9FFF79B
:1004C00068FF00282ED0FFF7F8FE284601F0CEFA8C
:1004D0007D48EAA10BF0E7FF0546C822E9A1EAA0A2
:1004E00001F02CF80146EBA00BF052FE4FF44872DD
:1004F000ECA1284601F022F80146ECA00BF048FEE2
:10050000304601F06AF9C8216F480BF0D8FFA07897
:1005100040B101F065F85A46C8A1C9A001F00EF833
:100520000020A070684802AA0021283806F0ACFD1F
:100530000023CDE9009701221946184608F0A1F9D9
:10054000ADE7F0B58BB002F0CAFF09A806F057FE80
:10055000012109AA084604F01CFA03F095F8D74DCA
:100560002978491C297003F093F8574809AB0122F8
:10057000D3A1283806F05BFB00240327CDE906470A
:1005800009AE402006210896CDE90210CE4A059416
:100590000720CDE9000204942346AFF24912CA486D
:1005A000CAA1C83807F0C1F8CDE9064780200C2160
:1005B0000896CDE90210C84A09200594CDE9000249
:1005C00004940023AFF20F32C348C4A1C83807F027
:1005D000ACF803F059F82978491E11F0FF01297091
:1005E00007D1C149098821B103F052F804F046FD52
:1005F00001E003F04DF809A9002007F077F90BB0EE
:10060000F0BD70B58CB0002401F0A2F84FF4A060EA
:1006100001F014FB4FF4E136304601F011F901F01E
:1006200019F800F07BFA00F0A3FA0BF08DFC0BF048
:10063000EDFBAE480122AEA1006809F0EBFE02E03E
:10064000ACA00BF0A5FD00F042FC0028F8D1641C22
:10065000A4B20BAA0AA9A6A00BF04FFC0546C8201D
:1006600001F0BBF85DB1052CF1D3A5A00BF090FD16
:10067000304601F0FBF94FF4FA74A5000EE00B9838
:10068000820A0A98810AA1A00BF082FDF0E73649A0
:10069000A5A00BF07DFD204601F09FF82A4667A13A
:1006A00067A000F04BFF0028F1D109A804F007F87B
:1006B00002F0EAFF814C2178491C217002F0E8FF2A
:1006C000032209A9002035E12009002066696C6534
:1006D0005F6E616D653A25730D0A00006368617293
:1006E0005F66696C656E616D653A25730D0A000081
:1006F0003801002000000020B4F2BFAACEC4BCFE26
:10070000B7B5BBD8B4FAC2EBA3BA25640D0A000092
:1007100066696C655F73697A653A2025640D0A0025
:100720006275666665725F6C656E6774683A2564AB
:100730000D0A000084020020D0B4C8EBCEC4BCFE79
:10074000B7B5BBD8B4FAC2EBA3BA25640D0A000052
:10075000B9D8B1D5CEC4BCFEB7B5BBD8B4FAC2EBDC
:10076000A3BA25640D0A0000901B00205553415286
:1007700054325F52585F4255463A25730D0A0000C5
:1007800047505253C4A3BFE9D4DAD7A2B2E1CDF89F
:10079000C2E70D0A00000000D7A2B2E1B3C9B9A6B2
:1007A0000D0A000041542B434950434C4F53453DE3
:1007B0003100000053485554204F4B0041542B4307
:1007C00049505348555400004F4B000041542B43AF
:1007D00047434C4153533D224222000041542B4396
:1007E0004744434F4E543D312C224950222C224342
:1007F0004D4E45542200000041542B434741545470
:100800003D31000041542B434950435347503D3143
:100810002C22434D4E4554220000000041542B43EE
:100820004950484541443D3100000000C1ACBDD3B2
:10083000B3C9B9A60D0A0000210000004154000010
:1008400041542B43474E535057523D310D0A00003F
:1008500067707320706F7765723A2564000000003E
:1008600041542B43474E53494E460D0A00000000A9
:10087000CAD5B5BD4750530D0A0000000D0A1A0035
:10088000000000003E00000041542B4349505345F6
:100890004E44000063697073656E643A25640D0A06
:1008A0000000000053454E44204F4B0073656E64BA
:1008B0005F6F6B3A25640D0A00000000C400002041
:1008C0004D595F53454D0000300500205461736B56
:1008D00031207461736B0000F80600205461736B63
:1008E00032207461736B00008800002044010020F6
:1008F000303A00005344206572726F720D0A000096
:100900005344BFA86572726F720000005344BFA8C1
:100910004F4B20CAA3D3E025644D422CD7DCB9B29B
:1009200025644D420D0A0000CAA7B0DC25730D0AEC
:100930000000000005900690CDE907210622402125
:100940000292CDE90310164B0820CDE900030023E5
:10095000AFF21142124813A1C83806F0E6FE02F0C9
:1009600093FE2178491E11F0FF01217007D1104933
:10097000098821B102F08CFE04F080FB01E002F056
:1009800087FE09A804F0C1F80CB0002070BD034632
:10099000012000E05843491EC9B2FBD27047000055
:1009A000680300207374617274207461736B0000BB
:1009B000880000207047FEE7FEE7FEE7FEE770478D
:1009C000704700000CB500224C480092019201686B
:1009D00041F4803101604FF4A063016801F40031FB
:1009E00001910099491C0091019911B9009999420E
:1009F000F3D10168890333D50121019140490A6887
:100A000042F010020A600A6822F003020A600A68D3
:100A100042F002020A6041684160416841604168F9
:100A200041F480614160416821F47C11416041687A
:100A300041F4E8114160016841F080710160016892
:100A40008901FCD5416821F003014160416841F012
:100A5000020141604168C1F381010229FAD10CBD54
:100A600001920CBD254810B5016841F001010160FB
:100A70004168244A114041600168234A11400160E5
:100A8000016821F480210160416821F4FE01416088
:100A90004FF41F018160FFF795FF1C494FF0006084
:100AA000086010BD154A10B55068194B10F00C01C4
:100AB000184803D0042901D0082901D0036012E0AE
:100AC0005168536801F470114FF0020413F4803F31
:100AD00004EB914102D053689B0301D50E4B00E01B
:100AE0000B4B5943016051680A4AC1F30311121DAF
:100AF000515C0268CA40026010BD00000010024054
:100B0000002002400000FFF8FFFFF6FE08ED00E0C5
:100B100000127A001000002000093D0038B50121C4
:100B2000242001F0B6FC4FF48074ADF80040102092
:100B30008DF8030003200C4D8DF80200694628460D
:100B400001F02BF92146284601F091F90420074CC9
:100B5000ADF800006946204601F01FF90421204647
:100B600001F085F938BD0000000801400014014083
:100B700038B50121142001F08CFC0121384801F026
:100B800097F94FF40040ADF80000364D48248DF839
:100B900003406946284601F000F92021ADF8001015
:100BA0008DF803406946304801F0F7F80120ADF8B0
:100BB000000028208DF803006946284601F0EDF872
:100BC00038BD2DE9F041294C274F264D01264FF421
:100BD000004808B1267001E0207878B1202138461D
:100BE00001F031F988B14146284601F02CF960B195
:100BF0000121284601F027F9012806D02021384696
:100C000001F021F901281DD028E00A2000F0E5FDBF
:100C1000002020702021384601F015F958B14146D6
:100C2000284601F010F948B10121284601F00BF9DE
:100C3000012805D012E00120BDE8F0810220FBE789
:100C40000320F9E74146284601F0FDF8012805D1C7
:100C50000121284601F0F7F800B926700020EBE7E3
:100C60000002300000080140001001402400002074
:100C700000F052BA382000F0ACBA002000F0A9BA57
:100C800038B50121042001F004FC1C20ADF800005F
:100C900010208DF803000320FC4C8DF802006946FB
:100CA000204601F07AF81C21204601F0E0F800F01F
:100CB00059FAF7490120C1F88C0138BDF4490120E7
:100CC000C1F88C01FF2000F027BA70B500246FF046
:100CD0007F45FF20FFF7CCFFFF2804D0641CAC4207
:100CE000F7D3012070BD002070BDE94910B5002088
:100CF000C1F88C01FFF7E9FF002802D0FFF7DEFF03
:100D0000012010BD70B505464FF6FF7401E0641E6A
:100D1000A4B2FF20FFF7ACFFA84202D0002CF6D10E
:100D200002E00CB1002070BDFF2070BD70B504461C
:100D30000D46FE20FFF7E6FF28B1012070BD00F050
:100D4000EBF904F8010B6D1EADB24FF0FF00F6D2C7
:100D500000F0E2F9FF2000F0DFF9002070BD70B56F
:100D60000C460546FFF7B1FF08B1012070BD2046D3
:100D700000F0D2F9FD2C18D000244FF40076285D45
:100D800000F0CAF9641CA4B2B442F8D3FF2000F00A
:100D9000C3F9FF2000F0C0F9FF20FFF769FF00F062
:100DA0001F00052801D0022070BD002070BD70B565
:100DB00016460C460546FFF781FFFFF796FF08B180
:100DC000FF2070BD45F0400000F0A6F9200E00F0B5
:100DD000A3F9C4F3074000F09FF9C4F3072000F023
:100DE0009BF9E0B200F098F9304600F095F90C2D2F
:100DF00002D1FF2000F090F91F24FF20FFF738FFF9
:100E00000106DED5641EE4B2F7D270BD70B50546AA
:100E1000012200210A20FFF7CAFF040004D110219B
:100E20002846FFF783FF0446FFF748FF0CB1012077
:100E300070BD002070BD70B505460122002109205B
:100E4000FFF7B5FF040004D110212846FFF76EFF1D
:100E50000446FFF733FF0CB1012070BD002070BDC8
:100E60001FB56846FFF7E7FF10B1002004B010BDC2
:100E70009DF800100120B0EB911F09D19DF80820CA
:100E80009DF8091000EB0220084400048009EDE7FA
:100E90009DF805009DF80A1000F00F0000EBD1103E
:100EA0009DF809109DF8072001F0030100EB4101B6
:100EB0009DF80800800900EB82009DF8062002F0F2
:100EC000030200EB8220401CC91F8840CEE72DE9B9
:100ED000F843FFF7D5FE382000F07BF90024FF200F
:100EE00000F01AF9641CA4B20A2CF8D314240021CF
:100EF00095220846FFF75BFF0546012802D0641ED5
:100F0000A4B2F4D2634E0027012D37707AD1872224
:100F10004FF4D5710820FFF74AFF4FF6FE780128FD
:100F20001ED0012200213720FFF741FF01220021BE
:100F30002920FFF73CFF01284FD80220307044469B
:100F4000012200213720FFF732FF01220021292052
:100F5000FFF72DFF05004DD0641EA4B2F0D249E08A
:100F600000246F46FF20FFF783FE3855641CA4B2AF
:100F7000042CF7D39DF80200012843D19DF803000B
:100F8000AA283FD144464FF0804801220021372053
:100F9000FFF70DFF012241462920FFF708FF05005A
:100FA00002D0641EA4B2F0D2B4B1012200213A20D2
:100FB000FFF7FDFE80B90024FF20FFF759FE3855EA
:100FC000641CA4B2042CF7D39DF80000400601D5A0
:100FD000062000E00420307014E001203070444608
:100FE000012200211046FFF7E2FE050002D0641E38
:100FF000A4B2F5D22CB1012251021020FFF7D7FE86
:1010000000B13770FFF75AFE002000F0E2F83078A8
:1010100010B10020BDE8F8830DB12846FAE7AA20F8
:10102000F8E72DE9F04106461A48154600780628EB
:1010300000D049024FF40077012D4FF0010219D082
:101040001220FFF7B4FE39463046FFF76FFE6D1EE3
:10105000044606F5007615F0FF0501D0002CF2D00D
:10106000012200210C20FFF7A2FEFFF727FE2046F9
:10107000BDE8F0811120FFF79AFE0400F5D1394652
:101080003046FFF753FE0446EFE70000000801403A
:10109000000021422500002070B506461D48154677
:1010A0000C460078062800D04C02012D13D00128F0
:1010B00009D0012200213720FFF779FE01222946BD
:1010C0001720FFF774FE012221461920FFF76FFE5B
:1010D00004000AD01AE0012221461820FFF767FE1B
:1010E000040013D1FE2130460DE0FC213046FFF70D
:1010F00036FE6D1E06F5007615F0FF0501D00028BE
:10110000F3D0FD210020FFF72AFE0446FFF7D6FDAD
:10111000204670BD2500002070B506460024334DE2
:1011200003E0641CE4B2C82C0FD80221284601F069
:101130000BFB0028F5D03146284601F0C1FA002407
:1011400005E0641CE4B2C82C01D9002070BD012167
:10115000284601F0F9FA0028F3D0284601F0B2FA47
:10116000C0B270BD38B5012141F2040001F091F91F
:10117000E020ADF8000018208DF8030003201C4C7F
:101180008DF802006946204600F007FEE021204667
:1011900000F06DFE174800214FF4827201804280FA
:1011A00081800222C28001220281520242813822C1
:1011B0008281C181072101820C4C0146204601F049
:1011C000DBF90121204601F053FAFF20FFF7A4FFCD
:1011D00038BD10B50749054C8881204601F0CCF98F
:1011E0002046BDE81040012101F042BA0030014024
:1011F00000080140E809002070B5C54D0024C5F87D
:101200008841902005F5C475FFF786FF0020FFF7A1
:1012100083FF0020FFF780FF0020FFF77DFFFF2006
:10122000FFF77AFF44EA0024FF20FFF775FF204311
:101230000121296070BD38B50121042001F029F990
:101240001C20ADF8000010208DF803000320B14CE5
:101250008DF802006946204600F09FFD1C212046C3
:1012600000F005FEFFF77EFF0820FFF7B2FFFFF753
:10127000C3FFA949088038BD10B5A54C0020C4F8AB
:101280008801052004F5C474FFF746FFFF20FFF72F
:1012900043FF0121216010BD70B59D4C0021054622
:1012A000C4F88811012004F5C474FFF735FF2846FF
:1012B000FFF732FF0120206070BD10B5944C002074
:1012C000C4F88801062004F5C474FFF725FF012047
:1012D000206010BD10B58E4C0020C4F88801042099
:1012E00004F5C474FFF718FF0120206010BD2DE93C
:1012F000F041874F0646002015460C46C7F8880186
:101300000320FFF709FFC4F30740FFF705FFC4F30D
:101310000720FFF701FFE0B2FFF7FEFE002405E023
:10132000FF20FFF7F9FE3055641CA4B2AC42F7D39E
:101330000120C7F88801BDE8F08110B5FFF79CFFD8
:10134000C007FBD110BD2DE9F04115460C460646FD
:10135000FFF7B3FF6E4F0020C7F888010220FFF7A8
:10136000DBFEC4F30740FFF7D7FEC4F30720FFF707
:10137000D3FEE0B2FFF7D0FE002404E0305DFFF7BB
:10138000CBFE641CA4B2AC42F8D30120C7F888019C
:10139000BDE8F041D1E72DE9F0410746C8B2C0F5FC
:1013A00080740E461546A24200D814464FF4807849
:1013B000224631463846FFF7C6FFA542BBD0281B60
:1013C0002744264485B24446A542F1D82C46EFE78F
:1013D000B1E770B50403FFF770FFFFF7AEFF4C4DA8
:1013E0000020C5F88801202005F5C475FFF794FE9C
:1013F000C4F30740FFF790FEC4F30720FFF78CFE0D
:10140000E0B2FFF789FE01202860BDE8704094E754
:101410002DE9F05FC1F30B060F0BC6F5805489462A
:1014200080461546A24200D81446DFF8F0A03903E2
:101430008B464FF480523948FFF759FF002006E0F1
:1014400032181AF80210FF2903D1401C80B2A042C2
:10145000F6D3A04221D23846FFF7BBFF0020524608
:1014600005E018F800108319401CD15480B2A04246
:10147000F7D359464FF480522848FFF78CFFA54216
:101480000FD0281BA044A144002685B24FF48054FD
:101490007F1CA542CBD82C46C9E722464946404688
:1014A000EBE7BDE8F09F10B5FFF707FFFFF745FF3B
:1014B000174C0020C4F88801C72004F5C474FFF756
:1014C0002BFE01202060BDE8104036E710B5104C1F
:1014D0000020C4F88801B92004F5C474FFF71CFE8D
:1014E00001202060BDE81040032000F057B910B57E
:1014F000074C0020C4F88801AB2004F5C474FFF742
:101500000BFE01202060BDE81040032000F046B92A
:10151000000021420008014026000020FA090020B6
:10152000354A014600201288130406D5334BC2F316
:101530000E02985418460AF061BF70472DE9F04139
:101540002D4F884600260146144635463E802CA085
:1015500000F018FBB8F1000F1AD06CB918E00A209F
:1015600000F03BF93888000406D54046FFF7D8FF65
:1015700008B12CB105E03D80641E2404240CEED19A
:101580000126214822490570204804700120087076
:101590003046BDE8F08110B500F0D8F900F0D6F97A
:1015A0001CA000F0CCFA1EA000F0ECFA41F288304A
:1015B00000F013F9114A0020115C3A2905D11118E5
:1015C0000979312904D0352902D0401CC0B2F3E793
:1015D00013A00AF0DDFDBDE8104012A00AF0D8BD4E
:1015E00010B5022212A113A0FFF7A8FFBDE810401A
:1015F000082213A114A0A1E734000020901B0020B2
:1016000025730D0A000000000800002009000020DA
:101610000C00002041542B435245473F000000007E
:101620000D0A0000D7A2B2E1D6D02E2E2E2E2E000B
:101630003E00000041542B43495053454E440000A6
:1016400053454E44204F4B004F4B313233340D0A3B
:101650001A0000001FB50121084600F023FF42F2E6
:101660000F70ADF8040041F61F40ADF800000020F7
:10167000ADF80600ADF802004FF080446946204600
:1016800001F028F91C208DF80C0001218DF80D10B7
:101690008DF80E108DF80F1003A800F0D4FA012277
:1016A0001146204601F0D3FB0121204601F0BAFB90
:1016B0001FBD10B501218C07204601F0DCFD00287C
:1016C0001DD00121204601F0E2FD0D4A11780D48A0
:1016D00011B10178491C01700B4903780C78002185
:1016E000A34201D911700170084A1088401C80B2D1
:1016F0001080092803D9118005490120087010BD08
:101700000C00002008000020090000200A00002032
:101710000200002008B5684603F0D4F808BD08B5FB
:10172000684603F008F908BD08B56A46082107F0C5
:1017300059F808BD364810B50078012807D103F0E4
:101740004FF807F0ACF9BDE8104003F054B810BDF5
:1017500010B56FF0040000F0B6FA2E482E492F4B5A
:101760000068304CB0FBF1F2B0FBF1F01A702C4A7B
:101770001168B4FBF1F1414310684FF47A72B2FB87
:10178000F0F058804FF0E020026942F0020202615E
:101790004161016941F00101016110BDF8B54FF0EF
:1017A000E02700247E691D49097800FB01F56846A1
:1017B00003F088F8B969B8698842FCD002D2A1EB7D
:1017C000000102E0A6EB000211440C440146AC42C9
:1017D000F1D3684603F0AFF8F8BD70B504460C4885
:1017E000007878B11048007860B90C4D6888844260
:1017F00003D3B4FBF0F0FFF797FF6888B4FBF0F178
:1018000000FB11444FF47A706043BDE87040C5E7B7
:101810007D0000201000002000127A002800002027
:101820002CDB000840420F007C0000207047434939
:101830000A885206FCD5414AC1B2121D1180704778
:10184000F0B5064687B0012144F2040000F021FE05
:101850003A4D284600F07CFB6815ADF810000324D3
:101860008DF812401820364F8DF8130004A9384621
:1018700000F093FA2815ADF8100004208DF813003D
:1018800004A9384600F089FA25208DF814008DF857
:1018900015408DF8164001208DF8170005A800F0BE
:1018A000D2F90021ADF80810ADF804100C20ADF805
:1018B0000610ADF80C10ADF80A00009669462846EF
:1018C00000F076FB012240F22551284600F0EDFBA6
:1018D0000121284600F0DFFB07B0F0BD70B502F033
:1018E0007FFF164C40F22551204600F095FCE0B1F8
:1018F000204600F02AFC134AC1B21088030414D415
:1019000044044FF0000304D50A290DD140F40040EF
:1019100011E00D290DD0C0F30D040B4D401C80B219
:1019200029551080C72800D91380BDE8704002F007
:1019300062BF40F480401080F7E7000000380140AB
:10194000000801402C000020FA1900200020A54AC0
:1019500001464FF496731154401C80B29842FAD35A
:10196000A1480180704710B5A04A4FF0000130B186
:101970001446104601F053FC0121204600E01046B9
:10198000BDE8104001F04EBA70B502F029FF984C46
:1019900040F22551204600F03FFCB0B1204600F057
:1019A000D4FB914CC5B22088B0F5967F11D20021AE
:1019B0008E4801F034FC208810B90120FFF7D3FFD6
:1019C000884920880D54401C2080BDE8704002F0FA
:1019D00012BF40F40040F7E77FB50D4604460121F1
:1019E000042000F05FFDADF804400020ADF8005089
:1019F0007E4CADF80600ADF802006946204600F0C6
:101A000069FF01221146204601F021FA1E208DF8BF
:101A10000C0001208DF80D0002218DF80E108DF8BC
:101A20000F0003A800F00FF97FBD70B50C46064605
:101A300001218CB01546084600F022FD304601F029
:101A400029FC00211020CDE902018020CDE90410FD
:101A50004001CDE9081006910A9107916946304688
:101A6000CDE9004501F083FC0CB070BD2DE9F041DB
:101A7000804686B00121042000F00BFD01214804BE
:101A800000F010FD5A4E304600F062FA0424ADF822
:101A9000104003258DF812501820564F8DF8130072
:101AA00004A9384600F079F90820ADF810008DF847
:101AB000134004A9384600F070F90024ADF808403E
:101AC0000C20ADF80440ADF80A00CDF80080ADF868
:101AD0000640ADF80C406946304600F069FA012234
:101AE0008021304600F0F9FA3E4A311DC83A42489A
:101AF000FFF79BFF0121304600F0CDFA012240F2B2
:101B00002551304600F0D1FA26208DF8140002202D
:101B10008DF815008DF8165001208DF8170005A8D6
:101B200000F091F841F61F416320FFF755FF2E4862
:101B300004800020FFF717FF06B0BDE8F08170B504
:101B400004462B4D0AE04021284600F05BFB0028AC
:101B5000F9D014F8011B284600F0F3FA2078002889
:101B6000F1D170BD70B50C460546002101F029FC8D
:101B70002146284601F038FC2846BDE87040012186
:101B800001F01FBC0FB4174810B503AAC83802995A
:101B90000AF0ECFA184C204601F028FC0028FAD193
:101BA0001048C8380AF060FCC1B22046FFF7DAFFDF
:101BB00010BC5DF814FB10B50C4C0121204601F05F
:101BC0005AFB00280CD00848018841F400410180EC
:101BD0000121204601F05BFBBDE810400020C2E679
:101BE00010BD0000901B00203400002000080040C1
:101BF000004400400008014080000240094880473E
:101C000009480047FEE7FEE7FEE7FEE7FEE7FEE7DE
:101C1000FEE7FEE7FEE7FEE704480549054A064BF6
:101C200070470000650A00083101000828A700205D
:101C300028AD002028A9002028A900202849084311
:101C400028490860704730B50F23C2780178012514
:101C5000F2B1244A126801F1E02102F4E062C2F517
:101C6000E062120AC2F10404D3404278A2408478B0
:101C70001C401443220181F80024007800F01F0169
:101C80008D404009800000F1E020C0F8005130BDD7
:101C900001F01F0085404809800000F1E020C0F8F5
:101CA000805130BD104A114001430E48001F0160B1
:101CB00070470C4A121D0029116801D0014300E051
:101CC0008143116070474FF0E0210428086903D078
:101CD00020F004000861704740F00400FAE70000BB
:101CE0000000FA050CED00E080FFFF1F8F4910B5E2
:101CF000884206D10121042000F0DDFB00210420F0
:101D00003BE08B49884206D10121082000F0D3FB3B
:101D10000021082031E08749884206D101211020A6
:101D200000F0C9FB0021102027E08349884206D13A
:101D30000121202000F0BFFB002120201DE07F4971
:101D4000884206D10121402000F0B5FB002140204F
:101D500013E07B49884206D10121802000F0ABFBD3
:101D60000021802009E0774988420AD184150121A9
:101D7000204600F0A0FB00212046BDE8104000F006
:101D80009ABB10BD10B50121084600F094FB00215C
:101D9000BDE81040012000F08EBBF0B5CC780022E9
:101DA00004F00F03E40601D58C7823430C784FF040
:101DB0000F0C14F0FF0F4FF0010E1BD005680E88BA
:101DC0000EFA02F42640A64210D196000CFA06F74D
:101DD00025EA070703FA06F5CE783D43282E02D000
:101DE000482E02D002E0446100E00461521C082A3F
:101DF000E5D305600A88FF2A1CD94468002202F155
:101E000008060EFA06F50E882E40AE420ED1960058
:101E10000CFA06F7BC4303FA06F7CE783C43282EAB
:101E200000D14561CE78482E00D10561521C082AA8
:101E3000E5D34460F0BD4FF6FF710180022181704F
:101E40000421C17070470246002092680A4200D007
:101E500001207047806880B2704702460020D26837
:101E60000A4200D001207047C06880B2704701610B
:101E70007047416170470AB1016170474161704725
:101E8000C160704741F48032826181618261816901
:101E9000806970472C4B10B51A684FF68074224049
:101EA00042EA00100843186010BD2849C861704715
:101EB000F0B5254C002801DAE36900E06368450DC0
:101EC0002E0185B2C0F30157B540C0F30342032F82
:101ED00005D0C6020AD503269640B34307E023F097
:101EE0007062636823F07063636002E0AB4343F0A9
:101EF000706201B12A43002801DAE261F0BD62603C
:101F0000F0BD10B58A0721F003040F49120F2144D8
:101F10000F238C6893409C438C608B6890400343F4
:101F20008B6010BD0949C1F8DC0070470008014012
:101F3000000C014000100140001401400018014055
:101F4000001C014000200140000001400000204230
:101F5000C44910B588420AD101218C03204600F003
:101F6000AAFA2046BDE81040002100F0A4BABE49FC
:101F7000884202D101214C0410E0BC49884202D1C0
:101F800001218C040AE0BA49884202D10121CC0423
:101F900004E0B84988420AD101210C05204600F02E
:101FA00093FA2046BDE81040002100F08DBA10BD24
:101FB00030B50446008A85B00D464CF6FF710840E6
:101FC000E98801432182A0894EF6F3110840A988CF
:101FD0002A8911436A8902431143A181A08A4FF6DD
:101FE000FF410840A9890143A182684600F006FA32
:101FF0009C48844201D1039800E00298A189090419
:1020000000EBC00101EB0010296801D5490000E098
:102010008900B0FBF1F06422B0FBF2F109010B0979
:102020006FF018056B4300EB8300A3891D044FF08C
:10203000320306D503EBC000B0FBF2F000F007005E
:1020400005E003EB0010B0FBF2F000F00F000843D6
:10205000208105B030BD4FF4165101600021818010
:10206000C18001810C2242818181704710B5028AB2
:102070004FF2FF031A400B884C8823438C88C98891
:102080000C4323431343038210BD00210180418090
:102090008180C18070470029818902D041F40051BC
:1020A00001E021F400518181704710B5C1F3421362
:1020B00001F01F040121A140012B07D0022B07D002
:1020C0001430002A026805D00A4304E00C30F8E717
:1020D0001030F6E78A43026010BD002A828A01D0E0
:1020E0000A4300E08A4382827047028A22F00F028C
:1020F0000282028A0A4302827047828922F40062C5
:10210000828182890A43828170470029818902D0B5
:1021100041F0020101E021F0020181817047028A51
:1021200022F020020282028A0A43028270470029BA
:10213000018A02D041F4804101E021F48041018212
:102140007047C1F30801818070478088C0F30800A0
:102150007047818941F0010181817047028BD2B2C1
:102160000283028B42EA012101837047028B02F451
:102170007F420283028B0A43028370470029818ACF
:1021800002D041F0200101E021F02001818270475E
:102190000029818A02D041F0100101E021F01001F4
:1021A000818270470029818A02D041F0080101E054
:1021B00021F00801818270470029818902D041F411
:1021C000004101E0C1F30E01818170470029818A3D
:1021D00002D041F4006101E021F400618182704786
:1021E000828A22F004028282828A0A4382827047B3
:1021F0000029818A02D041F0020101E021F00201B0
:10220000818270470246002012880A4200D00120D5
:102210007047C9430180704770B501F01F05012662
:102220000024C1F3421306FA05F2012B0FD0022B52
:102230000FD0838A4FEA11210088134206FA01F673
:1022400000EA060001D000B10124204670BD838958
:10225000F0E7038AEEE70A0A01219140C9430180B1
:102260007047000000380140004400400048004032
:10227000004C004000500040A548016841F00101B9
:1022800001604168A34A114041600168A24A1140BF
:102290000160016821F480210160416821F4FE01A0
:1022A00041604FF41F018160704799490A6822F428
:1022B00080320A600A6822F480220A60B0F5803F0A
:1022C00007D0B0F5802F03D1086840F4A020086043
:1022D0007047086840F48030F9E703460020590948
:1022E0008B4A01290AD002290AD0516A03F01F0241
:1022F000012393400B4200D0012070471168F5E79D
:10230000116AF3E718B500204FF4A0640090312063
:10231000FFF7E3FF0099491C0091A14201D000287A
:10232000F5D03120FFF7D9FF002800D0012018BDDB
:10233000774A116821F0F80141EAC0001060704747
:10234000764908607047724B5A68084322F47C1241
:102350001043586070477149086670476C4A51686D
:1023600021F003010143516070476948406800F063
:102370000C007047664A516821F0F001014351603A
:102380007047634A516821F4E0610143516070472E
:102390005F4A516821F4605141EAC00050607047C3
:1023A0005B4A0029517A01D0014300E08143517218
:1023B00070475A49C1F8D8007047554A516821F40E
:1023C00040410143516070475149002281F820206B
:1023D00081F82020012802D0042802D1052081F8AC
:1023E000200070474E490860704749490A6A024315
:1023F0000A6270474A4944390860704730B5444A18
:102400005168484B11F00C0103D0042901D0082970
:1024100001D0036012E05168536801F470114FF06D
:10242000020413F4803F04EB914102D053689B03F4
:1024300001D53D4B00E03B4B5943016051680F23F0
:1024400003EA1111394B5C5C0168E140416054685A
:10245000072505EA14241C5D21FA04F484605468FD
:1024600005EAD4241B5DD940C1605268032303EA06
:1024700092322E4B1B1F9A5CB1FBF2F1016130BD11
:10248000234A0029516901D0014300E08143516191
:1024900070471F4A0029916901D0014300E0814340
:1024A000916170471A4A0029D16901D0014300E0C7
:1024B0008143D1617047164A0029D16801D0014398
:1024C00000E08143D1607047114A0029116901D0B1
:1024D000014300E0814311617047114940390860B0
:1024E00070470E49C86470470949C8717047084869
:1024F000416A41F0807141627047054A01460020FF
:1025000092680A4200D001207047014988727047E2
:10251000001002400000FFF8FFFFF6FE00004242FC
:102520008004424200127A0000093D003A00002077
:10253000994910B588420AD1841401212046FFF739
:10254000BAFF2046BDE810400021FFF7B4BF934911
:10255000884202D10121041404E0914988420AD141
:102560000121C4132046FFF7AFFF2046BDE810400D
:102570000021FFF7A9BF10BD30B502884C8802F4D6
:1025800041530A88CD8822438C882C4322430C89EE
:1025900022434C8922438C892243CC8922431A430B
:1025A0000280828B22F400628283098A018230BD1C
:1025B000F0B505460C4602200021AA8B85B0012605
:1025C0004FF240031A40AA832884AF8BA268022AE4
:1025D00021D0A08800B102266846FFF70FFFE188EE
:1025E0000098B1F5007F2CD07101B0FBF1F000EB49
:1025F0008000A1684000B0FBF1F0401D80B20A21CC
:10260000B0FBF1F000F00101401A4FF6FF72C0F389
:102610004F0002EA0121821EFE2A01D3022000217E
:10262000E288084302432A8420886188A2890843FB
:10263000A18811430843384340F40060A88305B0E3
:10264000F0BD000AD3E70021018041808180C18074
:10265000018141818181C18107210182704700216F
:10266000018041808180C180022282608181704727
:102670000029018802D041F0400101E021F0400131
:10268000018070470029818B02D041F4806101E014
:1026900021F4806181837047090901238B40002A5E
:1026A000828899B201D00A4300E08A438280704751
:1026B000002A828801D00A4300E08A438280704762
:1026C0008181704780897047A1F57E420188FF3A79
:1026D00002D041F4807101E021F4807101807047E3
:1026E0000029818802D041F0040101E021F00401B9
:1026F00081807047028822F40062028002880A43C7
:1027000002807047018841F48051018070470029A0
:10271000018802D041F4005101E021F40051018010
:102720007047012901D0008B7047808A7047008A6A
:102730007047B1F5804F018803D021F480410180BA
:10274000704741F48041FAE70246002012890A42AC
:1027500000D001207047C9430181704730B501F0B6
:102760000F030125024605FA03F40020A3B209096C
:1027700005FA01F49188A4B2128921401A4202D0CC
:10278000002900D0012030BD01F00F02012191404D
:10279000C94301817047000000300140003800400B
:1027A000003C0040F94910B5884202D10121C4140F
:1027B00086E0B0F1804F09D0F54988420DD1012162
:1027C0000220FFF781FE0021022064E0012108467B
:1027D000FFF77AFE002101205DE0EE49884206D134
:1027E00001210420FFF770FE0021042053E0EA4994
:1027F000884206D101210820FFF766FE002108204B
:1028000049E0E649884206D101211020FFF75CFE2D
:10281000002110203FE0E249884206D1012120201A
:10282000FFF752FE0021202035E0DE49884202D128
:102830000121441444E0DC49884202D10121CC0446
:102840003EE0DA49884202D101210C0538E0D8493E
:10285000884202D101214C0532E0D649884206D196
:1028600001214020FFF730FE0021402013E0D24933
:10287000884206D101218020FFF726FE002180201A
:1028800009E0CE4988420AD1841501212046FFF78C
:102890001BFE00212046BDE81040FFF715BEC849C9
:1028A000884202D101210C040AE0C649884202D1C3
:1028B00001214C0404E0C44988420AD101218C045E
:1028C0002046FFF7F8FD2046BDE810400021FFF745
:1028D000F2BD10BD30B50288AC4CB24DA0420DD057
:1028E000A8420BD0B0F1804F08D0A94B984205D038
:1028F000A84B984202D0A84B984203D122F0700313
:102900004A881A43A54B984206D0A54B984203D05B
:1029100022F44073CA881A4302808A8882850A8812
:102920000285A0420AD0A84208D0A54A904205D00C
:10293000A44A904202D0A44A904201D1097A018669
:102940000121818230BD30B5028C22F00102028467
:10295000028C8388048B22F0020224F073050C8819
:102960002C430D8915434A882A43884DA8420BD031
:102970008C4DA84208D0924DA84205D0914DA84256
:1029800002D0914DA8420DD122F008054A8923F4C6
:1029900040732A4322F004058A882A438D891D4307
:1029A000CB892B4383800483C9888186028430BD10
:1029B00070B5028C22F010020284028C8388048B92
:1029C0000D8824F4E6464FF6FF7404EA05253543E6
:1029D0000E8922F0200204EA061616434A8804EA09
:1029E00002123243694EB04202D06E4EB04215D14F
:1029F00022F080064A8923F4406304EA021232433B
:102A000022F040068A8804EA021232438E8904EAE0
:102A100086061E43CB8904EA830333438380058300
:102A2000C9880187028470BD70B5028C22F480725F
:102A30000284028C8388848B0D8824F073042543E0
:102A40000E894FF6FF7422F4007204EA062616433C
:102A50004A8804EA022232434C4EB04202D0514E20
:102A6000B04215D122F400664A8923F4405304EAA7
:102A70000222324322F480668A8804EA0222324328
:102A80008E8904EA06161E43CB8904EA03133343F6
:102A900083808583C9888187028470BD70B5028C6C
:102AA00022F480520284058C8288838B0C8823F464
:102AB000E6464FF6FF7303EA0424344325F4005638
:102AC0000D8903EA053535434E8803EA06362E4361
:102AD0002E4DA84202D0334DA84205D122F48045A4
:102AE0008A8903EA82122A4382808483C988A0F8F3
:102AF0004010068470BD828B22F440628283828BF8
:102B00004FF6FF7303EA01210A4382837047828BE9
:102B100022F00C028283828B0A4382837047028BED
:102B200022F440620283028B4FF6FF7303EA012115
:102B30000A4302837047F0B5048C24F01004048427
:102B4000078B048C4FF6FF7527F4734705EA0333B0
:102B50003B4305EA02221A430C4B05EA0116984250
:102B60000ED0104B98420BD0B0F1804F08D0084BDC
:102B7000984205D0074B984202D0074B984225D186
:102B800024F02001314341F0100124E0002C0140E9
:102B90000004004000080040000C0040001000400D
:102BA0000014004000340140004C0140005001403E
:102BB0000054014000180040001C0040002000406C
:102BC00000400140004401400048014024F0A003BF
:102BD0000B4343F0100102830184F0BD028B22F00D
:102BE0000C020283028B0A430283704770B5048C87
:102BF00024F001040484058B048C4FF6FF7606EA6A
:102C00000313134325F0F305F84A2B4390420ED0EB
:102C1000F74A90420BD0B0F1804F08D0F54A90426D
:102C200005D0F54A904202D0F44A904202D124F0F5
:102C3000020201E024F00A020A4342F00101038388
:102C4000018470BD2DE9F84F0D4604460888E74F12
:102C5000DFF89CC3DFF89C83DFF89C934988AA883F
:102C60002B894FF0804A48B304282FD04FF6FF76C7
:102C70000828934632D0208C9E4620F48050208431
:102C8000A38B208C06EA0132009223F4734306EAF8
:102C90000B221A4306EA0E331343BC420AD06445A2
:102CA00008D0544506D0444504D04C4502D0D34A00
:102CB000944242D120F40050009940E02046FFF7B2
:102CC00095FFE9882046BDE8F84F87E72046FFF7E3
:102CD00032FFE9882046BDE8F84F20E7208C20F439
:102CE00080702084B4F81CE0208C06EA031306EA06
:102CF00001222EF0F30E43EA0B0343EA0E03009287
:102D0000BC420AD0644508D0544506D0444504D09E
:102D10004C4502D0B94A944203D120F40070009986
:102D200001E020F42060084340F48070A3832084F5
:102D3000E9882046BDE8F84FE9E620F40240084360
:102D400040F48050A3832084E9882046BDE8F84FF2
:102D5000D1E62DE9F0410C460026498807460125B9
:102D600001B90226A288012A00D1022520882389E0
:102D70000028384610D0FFF7DEFEE1883846FFF71E
:102D8000CEFE23892A4631463846FFF72FFFE188D9
:102D90003846BDE8F04121E7FFF728FFE1883846D3
:102DA000FFF71CFF23892A4631463846FFF7C3FE4A
:102DB000E1883846BDE8F041B1E610B50A884B8895
:102DC000CC881A438B8823431A430B891A434B89B7
:102DD00089891A430A43A0F8442010BD4FF6FF71B9
:102DE000818000210180C1804180017270470021F3
:102DF000018041808180C180018141818181C181C7
:102E0000704700210180418001228280C1800181C0
:102E100070470021018041808180C1800181418112
:102E2000818170470029018802D041F0010101E051
:102E300021F0010101807047002930F8441F02D0C1
:102E400041F4004101E0C1F30E0101807047002A06
:102E5000828901D00A4300E08A43828170478182DF
:102E600070471143A0F848107047002A828901D0AA
:102E70000A4300E08A4382817047018921F00701FB
:102E800001817047028922F070020A430281704773
:102E900000B50346FFF7F6FF188940F007001881D8
:102EA00000BD70B516460D46602904464FF001027C
:102EB00031460AD0FFF79AFE29462046FFF7E2FF87
:102EC000208940F00700208170BDFFF734FEF3E752
:102ED00030B504894FF6FF7505EA03231343E4B2C6
:102EE0000B432343038130BD10B50446FFF7F0FFC9
:102EF000208940F07700208110BD10B50446FFF70F
:102F0000E7FF208940F48040208110BD0185828246
:102F10007047028822F070020A430280704770B541
:102F20000589048B068C25F007050D434FF6FC41FF
:102F30000C4040F201110C434FF6FF7101EA0311FE
:102F400026F022061143314305810483018470BDBC
:102F5000028B22F070020A4302837047028B4FF605
:102F6000FF7322F4E04203EA012111430183704719
:102F7000828B22F070020A4382837047828B4FF665
:102F8000FF7322F4E04203EA012111438183704779
:102F90000029018802D041F0800101E021F0800188
:102FA000018070470029818802D041F0040101E0CE
:102FB00021F00401818070470029818802D041F00E
:102FC000080101E021F00801818070470029818813
:102FD00002D041F0010101E021F001018180704740
:102FE000028B22F008020A4302837047002C014042
:102FF000003401400004004000080040000C004084
:10300000028B4FF6FF7322F4006203EA01211143A1
:103010000183EAE7828B22F008020A438283E4E715
:10302000828B4FF6FF7322F4006203EA0121114301
:103030008183DAE7028B22F004020A430283D4E799
:10304000028B4FF6FF7322F4806203EA01211143E1
:103050000183CAE7828B22F004020A438283C4E719
:10306000828B4FF6FF7322F4806203EA0121114341
:103070008183BAE7028B22F080020A430283B4E71D
:10308000028B4FF6FF73C2F30E0203EA01211143D4
:103090000183AAE7828B22F080020A438283A4E79D
:1030A000828B4FF6FF73C2F30E0203EA0121114334
:1030B00081839AE7028C22F002020A43028494E799
:1030C000028C22F008020A4302848EE7028C4FF63B
:1030D000FF7322F0200203EA01111143018484E707
:1030E000028C4FF6FF7322F0800203EA01111143B4
:1030F00001847AE7028C4FF6FF7322F4007203EA30
:1031000001211143018470E7028C4FF6FF7322F412
:10311000006203EA01211143018466E7028C4FF645
:10312000FF7322F4005203EA0131114301845CE78A
:1031300010B50123048C8B409C430484038C8A408B
:103140001343038410BD10B50423048C8B409C43AF
:103150000484038C8A401343038410BD30B50124DA
:10316000058C00F118038C40A543058489B108291A
:103170000FD0091FC1F34E001844016821F4E0414B
:10318000016001684FF6FF7303EA022211430160F8
:1031900030BD03EB5100016821F07001016001684E
:1031A000F4E70029018802D041F0020101E021F09A
:1031B0000201018019E70029018802D041F00401D1
:1031C00001E021F0040101800FE70029818802D08D
:1031D00041F0800101E021F08001818005E7028853
:1031E00022F00802028002880A430280FDE68288FB
:1031F00022F07002828082880A438280F5E602898A
:1032000022F00702028102890A430281EDE6028967
:1032100022F08002028102890A430281E5E681846C
:10322000E3E68185E1E68186DFE60187DDE68187E9
:10323000DBE6A0F84010D8E6028822F44072028053
:1032400002880A430280D0E6808ECEE6008FCCE66C
:10325000808FCAE6B0F84000C7E6808CC5E6008DD6
:10326000C3E602460020128A0A4200D00120BCE6D2
:10327000C9430182B9E602460020138A92890B42B3
:1032800002EA010202D0002A00D00120ADE6C943C3
:103290000182AAE601684FF6FE721140016000212A
:1032A000016041608160C1606A496A4A08399042A0
:1032B00003D1486840F00F0006E0664A143290429D
:1032C00004D1486840F0F00048607047614A2832F5
:1032D000904203D1486840F47060F5E75D4A3C32A3
:1032E000904203D1486840F47040EDE7594A5032AB
:1032F000904203D1486840F47020E5E7554A6432B3
:10330000904203D1486840F47000DDE7514A7832BA
:10331000904203D1486840F07060D5E74E4A111FD3
:10332000904203D1086840F00F0006E04A4A143288
:10333000904204D1086840F0F00008607047464AA7
:103340002832904203D1086840F47060F5E7424AA1
:103350003C32904203D1086840F47040EDE73E4AA9
:1033600050329042EAD1086840F47020E5E730B569
:10337000026847F6F0739A430C6A8B682343D1E9DD
:1033800004452C4323438C692343CC6923434C6A73
:1033900023438C6A234313430360CA6842600A686C
:1033A00082604968C16030BD002101604160816078
:1033B000C160016141618161C161016241628162FB
:1033C00070470029016802D041F0010102E04FF688
:1033D000FE72114001607047002A026801D00A4362
:1033E00000E08A430260704741607047406880B2E5
:1033F000704702460020D10002D51749083901E084
:10340000144908390968114200D001207047C100F1
:1034100003D51149091F086070470E4908394860F3
:10342000704702460020D10002D50B49083901E05F
:10343000084908390968114200D001207047C100CD
:1034400003D50549091F08607047024908394860DB
:1034500070470000080002400804024000B585B033
:103460006846FEF7CBFF019805B000BD10B5FFF729
:10347000F5FF11490A6842F080720A600F49002284
:103480004A600A6842F001020A60BDE8104000F09C
:1034900075B80A484068704710B50446FFF7DEFF6C
:1034A0000021074A0B4608F0EAFD02460B4620467B
:1034B000002108F0E4FD10BDFCED00E0001000E08C
:1034C00040420F0010B500F0DFF8044610216948B3
:1034D00000F0D8F92046BDE8104000F0D9B86649A0
:1034E00010B500200860FFF7C1FFBDE81040E9E714
:1034F000FEE770B505460C000ED075B100F0C4F8BB
:10350000064610225B49284600F0C4FC304600F015
:10351000BFF80020208070BDFEE70A20088070BD43
:1035200070B50C00054612D095B1102100F0A4FC36
:10353000102810D200F0A8F80646102229464D485F
:1035400000F0A8FC304600F0A3F8002005E0FEE7FC
:103550000A20088070BD4FF47A70208070BDFFF79C
:1035600098BF7047020004D04348006810B10021A2
:1035700002E0FEE74FF4FA61118070473E490860AF
:10358000704710B500F08BF8183810BD10B500F07A
:1035900086F8103810BD00F082B8F0B50C0E0B0C98
:1035A0000D0A0026354AD0F1FF378E411BD24FF667
:1035B000FF76D0F1FF378E410AD26FF07F45D0F110
:1035C000FF308D4101D2105DF0BDD05C0830F0BD00
:1035D000FF23D0F1FF308B4102D2505D1030F0BD9F
:1035E000505C1830F0BD4FF6FF740023241A8B4155
:1035F00011D26FF07F440023241A8B4105D2000EB4
:1036000040EA0120105C2030F0BD000C40EA01408F
:10361000105C2830F0BD0023D0F1FF048B4105D2AF
:10362000000A40EA0160105C3030F0BD105C3830B8
:10363000F0BD08B100F036B80820704708B100F0BE
:1036400031B81020704708B100F02CB82020704726
:1036500000B550EA01020BD0C243521CCB4343F1E8
:10366000000310401940FFF798FFC0F13F0000BD74
:10367000402000BDBC1C00204C00002038D90008B0
:1036800072B6704762B67047EFF3108072B670473B
:1036900080F31088704730BF704720BF7047B0FA82
:1036A00080F0704790FAA0F0B0FA80F0704790FA7E
:1036B000A0F07047A0F14101192902D961381928F9
:1036C00001D80120704700207047A0F1410119295D
:1036D00005D92039192902D93038092801D8012003
:1036E0007047002070476138192801D801207047C1
:1036F000002070474138192801D801207047002068
:1037000070473038092801D80120704700207047E1
:103710003038072801D80120704700207047A0F1F9
:103720003001092905D91139052902D9613805283F
:1037300001D80120704700207047202803D00928B5
:1037400001D0002070470120704720280BD00D28A1
:1037500009D00A2807D00C2805D0092803D00B2847
:1037600001D0002070470120704720385E2801D822
:10377000012070470020704721385D2801D80120C2
:10378000704700207047A0F120015E2916D820283C
:1037900014D00D2812D00A2810D00C280ED00928D9
:1037A0000CD00B280AD021391A2907D320391A291D
:1037B00004D330380A2801D3012070470020704715
:1037C00041B2002901DB1F2803D97F2801D0002046
:1037D000704701207047A0F14101192900D820301D
:1037E000C0B27047A0F16101192900D82038C0B2D9
:1037F000704700B50B46FFF7F5FF02461846FFF786
:10380000F1FF824201D1012000BD002000BD000077
:10381000FD48FE490246C0E9001200218160C160F6
:10382000016141618161C16101620163C162416203
:1038300000F148018163C1634FF480610164416418
:10384000F3480260704710B500231C46641C41EA2F
:103850000323042CFAD310F0030404D109E0521E10
:1038600000F8011B641C22B1042CF8D301E008C04D
:10387000121F042AFBD202E000F8011B521E002A8C
:10388000FAD110BD0A460021DDE730B4814202D9E9
:1038900030BC00F0C5BD10441144401E491E431AFF
:1038A000042B28D300F0030301F00304A34201D149
:1038B000012400E00024F4B1032B07D109E05B1ED2
:1038C00011F8014900F801495BB2521E0AB1002B00
:1038D000F5DAC01EC91E04E051F8043940F8043975
:1038E000121F042AF8D2C01CC91C04E011F80139C7
:1038F00000F80139521E002AF8D130BC704770B56B
:10390000034662B16BB161B113441144012003F06D
:10391000030401F00305AC4205D1012504E00120B8
:1039200070BD002070BD0025DDB1BCB113F8015D94
:1039300011F8016DB54200D00020521E641E01280E
:10394000F0D1002AF1D109E053F8044D51F8045D9B
:10395000AC4200D00020121F01280AD1042AF3D261
:1039600007E013F8014D11F8015DAC4200D00020D2
:10397000521E0128D6D1002AF3D170BD30B5C36BD9
:10398000B3FBF2F402FB14340CB1121B00E0002272
:10399000446C11448C4201D2002030BD5D18611A84
:1039A000C5631A444164104630BD10B5B0FBF3F452
:1039B00003FB140000B1181AB2FBF3F403FB142448
:1039C0000CB11B1B00E0002310441A44491E02FBEB
:1039D000010010BD2DE9FC5F1F4614008A46834696
:1039E00000D101AC0020884E2060FFF74DFE009012
:1039F00053465A460121D6F84480F06BFFF7D5FFB5
:103A0000054642F2E279404506D90098FFF740FEAC
:103A1000A5EB0800206012E0524659463046FFF7F9
:103A2000ADFF0600009807D0FFF732FE42F210709B
:103A300038803046BDE8FC9FFFF72AFE2560A7F8D6
:103A400000900020F6E72DE9F04116460D460446A9
:103A5000FFF71AFE6368996B01B96B4BDF6B5C6C07
:103A6000FFF716FE012D06D9B7FBF5F005FB107028
:103A700000B1281A241A42F2107030802046BDE8A6
:103A8000F0810A4601466048DDE7B8B1614A02604C
:103A9000002242608260C260026142618261C26152
:103AA0000262826242630263C26242628263C263F2
:103AB0000264426442F210700880704742F2117052
:103AC000FAE72DE9FF4F89B08A46DDE91879044607
:103AD00007B906AF0020386049462046FFF7D5FFFA
:103AE000B9F80010A1F51C50103859D148480068A9
:103AF00090B10020DFF810810290FFF7C5FD05901E
:103B00005FEA0A000BD002460B98002613184048C3
:103B1000B3465B1E056848E042F2E7713EE0D8F824
:103B20003C1003910423C34645461A460C9903985A
:103B3000FFF73BFF0399049008440890DDE9162342
:103B40000C99FFF732FF009000990498464608440C
:103B50000290D8F844100191884261D90598FFF786
:103B600097FDDDE901103CE0A86B504506D1D5F882
:103B700040C00B998C4501D12E4618E0296C0144B8
:103B8000491E834213D3824203D98B4201D98A4210
:103B900009D80598FFF77CFD42F27F71A9F8001063
:103BA0000DB0BDE8F08FAB46ED68002DDCD136B925
:103BB000C4E90EAA0B9820640B982646606404237F
:103BC0001A46D8F83C000C99FFF7EFFE0490D8F89D
:103BD00044100191884206D90598FFF759FD0199D3
:103BE0000498401A34E0F06B0890DDE916230C9934
:103BF000FFF7DBFE0090716C0191884210D90598A7
:103C0000FFF746FD08E00000CC1C0020484541506D
:103C1000500000204E4F4E45DDE90001401A46E0BD
:103C20000C9804228000014601904046FFF7A6FE52
:103C3000039008B100201CE0D8F844400598FFF735
:103C400027FDBAF1000F07D00198A04200D9001B50
:103C5000386042F2E27054E00298F6E7DDE91612AD
:103C60003046FFF78BFE90B1039941F8280008F128
:103C700001000C9980468842F0D3A64220D1C4E9C5
:103C800002B55FEA0B0016D0CBF80C4015E0F56BDF
:103C9000746C0598FFF7FCFC0C98DDE91623A0EB8B
:103CA00008012846FFF781FEA04200D9001B3860BA
:103CB00042F2D87025E06E4804603DB1AC6005E08A
:103CC0007069C4E90460746100B104616948C4E9C1
:103CD00000060898A061009908980844401EE06119
:103CE000039820620098A06217986063169820637A
:103CF0000C98E0620C9860620598FFF7C9FC42F2EC
:103D00001070A9F800004BE770B50D460446FFF7A8
:103D1000BBFC646AFFF7BCFC42F2107028802046AE
:103D200070BD70B515460446FFF7AEFC616A49B137
:103D3000E26A91420BD9FFF7ABFC42F29570288002
:103D4000002070BDFFF7A4FC42F2DE70F7E7491EC9
:103D50006162226A52F82140FFF79AFC42F2107029
:103D60002880204670BD70B514460E460546FFF704
:103D70008BFCEA6A911B491E42F295768A4202D96F
:103D80006A6A8A4204D9FFF783FC2680002070BD4E
:103D90002A6A52F82150FFF77BFC42F21070208013
:103DA000284670BD2DE9F04116460D460446FFF742
:103DB0006BFCE76A626A8446BA4204D3FFF768FC88
:103DC00042F2DD701EE04FF0000E1346206A04E060
:103DD00050F82310A94205D05B1C9F42F8D8BEF1D1
:103DE000000F03D050F8221040F82310D4E9080146
:103DF00040F82150606A401C60626046FFF748FC52
:103E000042F2107030803AE62DE9F04115460E4638
:103E100004464FF0FF37FFF737FC0246E16A606A5D
:103E2000884205D31046FFF733FC42F2DD701CE0F8
:103E30004FF0000C05E0236A53F82030B34205D060
:103E4000401C8142F7D8BCF1000F09D00C1A104673
:103E5000641EFFF71DFC42F21070288020460EE61B
:103E60001046FFF715FC42F288702880384606E6B7
:103E700050000020504F4F4C002201E0401C521CCB
:103E800018B103780BB18A42F8D3104670474FF04F
:103E9000FF31F1E730B5002811D089B10346002485
:103EA00005E0491C03F8015B641C4BB141B10D787E
:103EB0000DB19442F5D3944201D20021197030BD66
:103EC000002030BD4FF0FF32E4E730B5002816D0B7
:103ED000B1B1002A13D0034601E05B1C10D01C785E
:103EE000002CFAD104E0491C03F8015B641C3BB1CF
:103EF00031B10D780DB19442F5D30021197030BD68
:103F0000002030BD4FF0FF32DFE7F0B532B330B103
:103F100011B304460B46401C491C002508E0E9B1DA
:103F200008784042F0BD401C491C5B1C641C6D1CA1
:103F300026781F78BE4204D11EB110B109B1954256
:103F4000F1D395420AD0F4B2FAB2944201D0B01A39
:103F5000F0BD1EB10028E2D00078F0BD0020F0BD19
:103F60004FF0FF32D1E72DE9F0475FEA020A41D076
:103F700070B181B10446461C0F464D1C0078FFF716
:103F80002AFC81463878FFF726FC4FF0000811E044
:103F900079B3087829E0007821E008F1010814F8E5
:103FA000010F6D1C761C7F1CFFF715FC81463878CD
:103FB000FFF711FC814505D1217819B116B10DB17A
:103FC000D045EAD3D04515D04946814503D0A9EB69
:103FD0000000BDE8F0870800FBD026B13078BDE8CE
:103FE000F047FFF7F8BB25B12878FFF7F4FB404214
:103FF000EFE7FFE70020ECE74FF0FF32B3E710B543
:10400000002812D081B1002303E0401C03F101031A
:104010000BD004781CB1944201D08B42F5D38B4273
:1040200002D2E1B2914200D0002010BD0A464FF00A
:10403000FF31E4E730B5154604000FD071B1491ED9
:10404000FFF71AFF20180AD000E0401EA04202D05D
:104050000178A942F9D10178A94200D0002030BDF1
:104060000A464FF0FF31E5E730B5002803D00BB129
:10407000044607E0002030BD8D4200D122705B1E57
:10408000641CF8D02578002DF5D0002BF4D130BD7C
:104090004FF0FF33E8E72DE9F0418C46060032D0BF
:1040A000BCF1000F2FD072B3501C01D0511C01E0A5
:1040B0004FF0FF310D4611463046FFF7DDFE044656
:1040C00029466046FFF7D8FE050014D0A5421AD84D
:1040D000301911D01CEB05000ED0671B00243019DD
:1040E00080462A466146FFF710FF010006D00020F7
:1040F000641C28B106E03046BDE8F0810120F7E7F6
:10410000BC42ECD909B10020F6E74046F4E74FF095
:10411000FF32C0E72DE9FF5F074611980E9D144658
:10412000894600286CD00026B246B9F1000F00D1B4
:104130000126A01E232800D3012615B32846FFF729
:1041400014FB01281CD1302D1BD0A5F13000C1B2C9
:104150000F98012802D0A5F1410001E0A5F161000E
:10416000C0B20A2C02D8A14206D307E00A2903D321
:10417000A4F10A01884201D2012000E0002000B130
:104180000126119A56BBB846012003E0B8FBF4F8AB
:10419000401CC0B2A045F9D20399012900D00021EA
:1041A00000EB010CCC4518D84FF0000B4B464845AE
:1041B00000D318464DB1A9EB0000401A4B4610F051
:1041C000FF0F04D0302D04D001E00844C3B200201A
:1041D00000E0012082460EB901E001264B4610990D
:1041E000D01809B1002101700021401E04E056B131
:1041F0003F2200F80129491C9942F8D39EB30020C0
:1042000004B0BDE8F09F27B919B1039A012A16D06E
:1042100024E0B7FBF4F204FB1272D2B20A2A01D2F4
:10422000303207E0DDF83CC0BCF1010F01D037327D
:1042300000E05732B7FBF4F700F80129DBE75AEA50
:104240000B0205D0BAF1000F08D05A1E914205D1D9
:104250002D2200F801294FF0010BCCE7002DCAD028
:1042600000F80159C7E7FFE71198C9E77FB50DF1DD
:10427000200C9CE870008DE878000023FFF74AFFCF
:1042800004B070BD2DE9FF411C46DDE90B650A9FB6
:10429000002802DA4042012300E00023CDE9004774
:1042A000CDE90265FFF736FF04B025E72DE9FF5F92
:1042B0001E4615465FEA0109824601D10DF1080943
:1042C000C9F800A00E9808B903A80E90002101704B
:1042D0005FEA0A0003D0012D01D0242D01D900206E
:1042E0008EE70446007801E014F8010FFFF72DFA7D
:1042F0000128F9D020782B2803D02D2805D00020C4
:1043000007E04FF0000B641C04E0012E00D1641C98
:1043100001208346019425B1082D11D0102D22D102
:1043200012E02078302801D00A251CE014F8010F93
:10433000582803D0782801D0082514E010250CE077
:10434000207830280ED00EE0207830280BD114F8D9
:10435000010F582801D0782805D16078FFF7DFF9E0
:10436000012800D1641C0026B04600962778384604
:10437000FFF7ABF9012824D13846FFF7C2F901282D
:104380000CD03846FFF7AFF9012809D0373FF9B212
:10439000A94216D2B8F1000F04D00EE0303FF6E784
:1043A000573FF4E71D4850F82500B04203D306FB01
:1043B00005168E4201D24FF001080098641C0028B7
:1043C000D4D0B8F1010F01D14FF0FF3601988442EB
:1043D00002D0C9F8004001E0C9F800A00E993046AB
:1043E00081F800B00CE708B500230093FFF75EFFEB
:1043F00008BD1CB501AB00930123FFF757FF9DF8E3
:1044000004204FF0004122B1884200D241420846C8
:104410001CBD8842FCD36FF000401CBD38DA000898
:10442000002800D17047002900D17047002A00D130
:1044300070472DE9F81F00F0030301F00304A342C5
:1044400011D1C3F1040303F00303012B1DD3012A8F
:1044500000D2F2E011F8014B00F8014BA3F1010387
:10446000A2F10102F1E700F0010301F00104A3420F
:1044700000D094E0012B44D311F8014B00F8014B1C
:10448000A3F10103A2F10102F4E7B2F5B47F26D350
:10449000B1E8F81FA0E8F81FB1E8F81FA0E8F81F7E
:1044A000B1E8F81FA0E8F81FB1E8F81FA0E8F81F6E
:1044B000B1E8F81FA0E8F81FB1E8F81FA0E8F81F5E
:1044C000B1E8F81FA0E8F81FB1E8F81FA0E8F81F4E
:1044D000B1E8F81FA0E8F81FA2F5B472D5E7282AC2
:1044E00006D3B1E8F81FA0E8F81FA2F12802F6E70A
:1044F000042A06D351F8043B40F8043BA2F104021D
:10450000F6E7202A42D331F8023B20F8023B31F88B
:10451000023B20F8023B31F8023B20F8023B31F825
:10452000023B20F8023B31F8023B20F8023B31F815
:10453000023B20F8023B31F8023B20F8023B31F805
:10454000023B20F8023B31F8023B20F8023B31F8F5
:10455000023B20F8023B31F8023B20F8023B31F8E5
:10456000023B20F8023B31F8023B20F8023B31F8D5
:10457000023B20F8023B31F8023B20F8023B31F8C5
:10458000023B20F8023BA2F12002BAE7022A06D33E
:1045900031F8023B20F8023BA2F10202F6E7102AB2
:1045A00042D311F8013B00F8013B11F8013B00F840
:1045B000013B11F8013B00F8013B11F8013B00F809
:1045C000013B11F8013B00F8013B11F8013B00F8F9
:1045D000013B11F8013B00F8013B11F8013B00F8E9
:1045E000013B11F8013B00F8013B11F8013B00F8D9
:1045F000013B11F8013B00F8013B11F8013B00F8C9
:10460000013B11F8013B00F8013B11F8013B00F8B8
:10461000013B11F8013B00F8013B11F8013B00F8A8
:10462000013BA2F11002BAE7012A06D311F8013BBF
:1046300000F8013BA2F10102F6E7BDE8F81F704760
:1046400070470000F64CF74DFFF71EF82168491C33
:1046500021602968491C2960FFF71AF804F078FDE9
:10466000F2E700B5EE4A89B0002111600B220591F6
:104670000691CDE90720EC48EC4AED4B0068126842
:104680001B680292CDE903013F20CDE9000300231E
:10469000AFF24F02E7A1EC4803F047F809B000BDC4
:1046A0000020EA4B024600EB400103EB8101401C75
:1046B0000A810A60C0B24A604028F4D3704710B53E
:1046C000044604F04BFDE24800220A210270E14852
:1046D0000270E1480270E1480260E1480260E1488E
:1046E0000270E1480270E1480270E1480260E1486E
:1046F0000260E1480260E1480270E1480068B0FBF6
:10470000F1F0E0490860E049086830B1DF4800682E
:1047100018B1096804C0491EFCD1DD480260DD48BB
:104720000260DD480260DD480260DD480260DD486D
:104730000260DD480260DD48027001F02BFFFFF7E8
:10474000AFFF204601F08DF82088002847D1204691
:1047500001F0D9FA2088002841D1204601F0FCFA66
:10476000208800283BD1204601F0FDFE208800284B
:1047700035D1204602F03AFA208800282FD1204671
:1047800002F0E2FC2088002829D1204603F058FEE0
:104790002088002823D1204601F062F920880028D3
:1047A0001DD12046FFF75DFF2088002817D1204645
:1047B00003F046FF2088002811D1204602F04FFE6A
:1047C000208800280BD1204604F032FC20880028E5
:1047D00005D100F0A5FCBDE81040FFF731BF10BDCA
:1047E0009C480078012805D199490878FA2801D217
:1047F000401C08707047974810B5007801282BD1ED
:10480000FEF742FF92490446087800B3401E10F0BC
:10481000FF0008701BD190480078C0B901F0C3FEBA
:1048200091490870894900EB400051F820008C49FB
:1048300008608A490968884209D050F8901F491CCD
:1048400001609B480168491C016008F0F5FF2046A3
:10485000BDE81040FEF71CBF10BD7D4810B50078C4
:10486000002824D17C480078002820D1FEF70CFFD6
:10487000044601F098FE7C490870744900EB400042
:1048800051F820007649086074490968884209D0C7
:1048900050F8901F491C016085480168491C01605F
:1048A00008F0C5FF2046BDE81040FEF7F1BE10BD80
:1048B000694810B50078012803D1FEF7EAFD6C497C
:1048C000086010BD70B504466148007810B146F626
:1048D000625019E05F480078012802D045F68960EF
:1048E00012E05D4D2878FA2802D345F209200BE04A
:1048F000FEF7CAFE06462878401C2870FFF7D8FF4E
:104900003046FEF7C5FE0020208070BD524810B52D
:10491000007800280ED1FEF7BCFD55490968401A01
:1049200054490A68824200D2086053490A688242A8
:1049300000D2086010BD70B504464548007810B13B
:1049400046F6655023E043480078012802D045F63A
:1049500089601CE0404E307870B1FEF795FE054648
:104960003078401E10F0FF00307008D02846FEF767
:104970008FFE46F663500AE046F6645007E0FFF704
:10498000C5FF2846FEF784FEFFF767FF0020208062
:1049900070BD2DE9F04116460C460746FEF774FE41
:1049A00036490025012F01D00D7001E001220A7067
:1049B00034490CB10C6005E0314A0A231268B2FB9D
:1049C000F3F20A60FEF764FE3580BDE8F08110B5B1
:1049D0000189002914D0012912D00024022907D00E
:1049E000D0E90013CA681461C1E90343D96005E046
:1049F000D0E90012C1E90342C2E90314C0E9002171
:104A000010BD70B504461248007810B148F2D1408C
:104A100079E01148007810B146F6635073E049E040
:104A200078000020DC000020E0DA0008DCDA000872
:104A3000D8DA000875432F4F532D4949492049645E
:104A40006C65205461736B00A4350020383700205A
:104A50007C0000207D000020C40000201C010020FC
:104A600020010020AA000020AB000020AC000020A4
:104A7000B8000020BC000020C0000020CC000020B6
:104A80002CDB0008C800002004DB000800DB000865
:104A90005C0000206000002064000020680000200E
:104AA0006C0000207000002074000020FA0000203C
:104AB000F0000020F7480078012802D046F67B106D
:104AC00021E0FEF7E1FD0646F348F449007800EBEB
:104AD000400001EB80052889022805D23046FEF708
:104AE000D7FD46F67A100EE02846FFF770FF2868DB
:104AF000416D09B9EA49096881653046FEF7C8FD8C
:104B0000FFF7ABFE0020208070BD70B5E54D044678
:104B1000287818B145F68A60208070BD01F043FD09
:104B2000E1490870DC490870DC4900EB400051F8AD
:104B30002000DE490860DE4908600120287008F086
:104B400065FE43F69920E7E70021018047F25C60AB
:104B5000704738B14268C1F8C02081688968096A25
:104B6000C161704791F83400022803D0072803D0B0
:104B7000D0A002E0D0A000E0D1A0C1F8C0007047F2
:104B800030B58A68002592F8374002891AB1521C64
:104B9000028102680BE0012202814D600D6001601C
:104BA00014E0936893F83730A34203D85268002A80
:104BB000F7D107E032B1136853B1C1E9003259604F
:104BC000116030BD4D6042680A605160416030BD87
:104BD0001160C1E90052016030BD10B5C2870024E8
:104BE000234601630EE04B6041F8103B641C41F822
:104BF000103BA4B241F80C3C21F8083C41F8043CBD
:104C000041F8180C9442EED310BD70B5044690F8EC
:104C10003700A24900EB400001EB8001D4E90320FA
:104C2000002540B10B895B1E0B81C26092B11061FF
:104C30002561E56070BD2AB10889401E08811561B3
:104C40000A60F5E70D810D604D6094F8370001F0C2
:104C5000C8FCEDE74860EBE738B50446022531B102
:104C60006B46022203F025FDBDF8000028B184F850
:104C700036502046FFF7C9FF38BD032084F83600C0
:104C8000F7E72DE9F0418A4D07460C4628680026D3
:104C9000194680F8342080F83560FFF7DDFF64B1F5
:104CA000FC6004F10806012239462868FFF795FFE9
:104CB00039463046FFF764FF02E02868C68706637E
:104CC00020462968BDE8F04143E710B50289002479
:104CD000012A0BD00A6862B14B6873B153601A6045
:104CE0000289521E02814C600C6010BD0460446059
:104CF000F6E74A6814600260F2E754604260EFE74A
:104D000070B50646C58F046B07E0E06821460830A1
:104D1000FFF7DBFF6D1EADB22034002DF5D1002072
:104D2000F087306370BD10B50B6BC98F08E0DC688D
:104D3000844202D1DA61186110BD491E89B2203364
:104D40000029F4D110BD90F83710544A01EB41010D
:104D500002EB810100230A8942B1521C0A810A68D0
:104D6000C0E903230A6810610860704701220A81C4
:104D7000C360036108604860704790F83710474A85
:104D800001EB410102EB810100230A893AB1521C77
:104D90000A81C3604A680261D0604860704701229E
:104DA0000A81C36003610860F7E710B5044690F814
:104DB000370001F008FC384994F837000978884238
:104DC000204602D1BDE81040D7E7BDE81040BAE761
:104DD00010B5044603F05EFB94F83610490703D47F
:104DE0002046BDE81040E0E710BD2DE9F041064641
:104DF00091F8360000270C4615464FF001080828A8
:104E000035D2DFE800F03434040434341A1A94F84C
:104E10003400032803D121463046FFF784FFE765BD
:104E2000A4F86070256416B12046FFF769FF20469C
:104E3000FFF7CEFF84F8367015E094F834000328AD
:104E400003D121463046FFF76EFFE765A4F8607096
:104E5000256416B12046FFF753FF204603F01AFBE6
:104E6000042084F8360084F8358084F83470ACE58A
:104E700016A2C1F8C020816811B18968096A00E0F2
:104E800012A1C161704770B580F83710C58F046BEF
:104E90002EE00000CC000020AA00002038370020BF
:104EA000C80000207D000020AB0000202001002071
:104EB0001C010020200000005461736B2051000091
:104EC0005461736B2053656D0000000020000000EA
:104ED000E668308A0836012807D921463046FFF7B0
:104EE000F4FE21463046FFF74BFE6D1EADB2203476
:104EF000002DEDD170BD002101604160018170473E
:104F00000289521C028102684A6000220A6002681B
:104F100002B1116001600289012A00D1416070472D
:104F200010B50B6BC98F08E0DC68844202D1DA61EE
:104F3000186110BD491E89B220330029F4D110BD7B
:104F40002DE9F0410C4691F836100025022617464F
:104F5000082933D2DFE801F0323204043232191961
:104F600094F83410032903D13A462146FFF7D8FFBD
:104F7000E565A4F8605020462764FFF7C1FE20468F
:104F8000FFF726FF84F8365014E094F83410032914
:104F900003D13A462146FFF7C3FFE565A4F8605008
:104FA0002046276403F076FA2046FFF7A9FE042086
:104FB00084F8360084F8356084F8345005E570B51F
:104FC0000C6B049DC98F0AE0E668864204D1C4E9EF
:104FD00004022383E56170BD491E89B22034002993
:104FE000F2D170BDF8B50C46054691F83610002692
:104FF000069808293BD2DFE801F03A3A04043A3A2D
:10500000202094F83410032911D0E265A4F8603010
:10501000206435B12046FFF773FE21462846FFF78E
:1050200027FF2046FFF7D4FE84F836601BE000908F
:1050300021462846FFF7C3FFEBE794F83410032915
:1050400016D0E265A4F860302064204603F022FA0E
:1050500035B12046FFF754FE21462846FFF708FFEA
:10506000042084F8360084F8356084F83460F8BD94
:10507000009021462846FFF7A2FFE6E710B5FEF7AD
:1050800003FB1F490446002008701F481D490160AA
:1050900051F8900F401C08601C490868401C0860CB
:1050A00008F0C5FB2046BDE81040FEF7F1BA70B528
:1050B000054617480078012820D1FEF7E5FA044696
:1050C0002868B0B11349884213D0816D11B1491ECF
:1050D00081650ED1288902280BD30F48007840B98A
:1050E0002846FFF774FC2868416D09B90B49096827
:1050F00081652046BDE87040FEF7CABA70BD000069
:10510000AB0000206836002020010020F0000020C5
:10511000CC000020A4350020C4000020C8000020DE
:10512000704700000023FF4AFDA14361C16111687F
:1051300019B181614861106070478361FBE72DE917
:10514000F0410446F84890460F4600781D4610B1DD
:1051500042F6E16025E014B3FEF796FAF34E31789B
:10516000491C3170FEF794FAF148C4E900070027A2
:10517000C4E9088704F10800FFF7BDFE2046FFF7E9
:10518000D1FFEC490888401C0880FEF77DFA317891
:10519000491E3170FEF77CFA2F80BDE8F08145F69C
:1051A000C3501880F9E7E44902C0E4A102C000211D
:1051B0008161FFF7A0BED0E9052100232AB151B1DA
:1051C00091614A61836143617047D64A116001B1C0
:1051D0004B61836170479361F5E72DE9F05F80468D
:1051E000D14814468946007810B143F2C92013E033
:1051F000B8F1000F06D0080007D0012905D045F608
:10520000256009E045F6C35006E0C949D8F800001A
:10521000884205D045F6C45010800020BDE8F09FBC
:10522000FEF732FAC14F3978491C3970FEF730FA6F
:10523000B8F810505FEA0900DFF8F8B2DFF804931D
:1052400008F10806AA460AD0012842D0FEF71CFA47
:105250003978491E11F0FF0139705DD064E05FEAD2
:105260000A0008D0FEF710FA3978491E11F0FF0144
:1052700039701FD026E04046FFF79DFFBBF80010B5
:105280004046491EABF80010FFF78DFFFEF7FCF912
:105290003978491E11F0FF01397007D1B9F80010B3
:1052A00021B1FEF7F5F9FFF7E9FE01E0FEF7F0F9AD
:1052B00000200BE0B9F8001021B1FEF7E9F9FFF783
:1052C000DDFE01E0FEF7E4F947F25F102080504672
:1052D000A4E7FEF7DEF8814607E030684A468168B9
:1052E0004046FFF72DFE6D1EADB2002DF5D14046B4
:1052F000FFF761FFBBF800104046491EABF80010F5
:10530000FFF751FFFEF7C0F93978491E3970FEF7F3
:10531000BFF9FFF7A2FACBE7B9F8001021B1FEF709
:10532000B7F9FFF7ABFE01E0FEF7B2F945F62560ED
:10533000CCE730B4844C029D246844F8802F0022CE
:10534000238162602B4630BC0122FFF79ABC2DE915
:10535000FF4F05468BB07448DDE9186400781F469E
:10536000894610B146F2AE1007E1ADB148F2010135
:10537000781A8F4229D019DC40F20111A7F20110EE
:105380008F4222D00BDC012F1FD0022F1DD0042F03
:105390001BD0082F16D118E045F6C350EDE00128C8
:1053A00013D0032811D007280CD10EE0B0F5807F70
:1053B0000BD0F4DDA0F58070013806D0022804D0AF
:1053C000062802D045F62560D7E05949286888426A
:1053D00002D045F6C450D0E0F80501D5012000E028
:1053E000002080464FF0000B0EB1C6F800B007F069
:1053F0000F010991FEF748F909994C4A4FF0010E47
:10540000012934D0022938D0042902D008296ED1CC
:1054100023E0296A01EA090ACA4524D011E021EAF9
:105420000A0135E0484A1268C2F884A00EB1696AE0
:105430003160FEF72DF9A4F800B050460FB0BDE87A
:10544000F08F390426D5FEF723F946F2B01094E028
:10545000FEF71EF946F663508FE0296A01EA090358
:105460005FEA030AEDD0B8F1000FDBD0D7E7296A75
:1054700029EA010ACA4506D0E3E7296A29EA0103B5
:105480005FEA030ADDD0B8F1000FCBD041EA0A0190
:105490002962C7E711780029DAD1924682F800E044
:1054A000FEF7F6F80D9800903B464A46294601A8BB
:1054B000FFF73FFFFEF7E8F89AF80010491E8AF858
:1054C0000010FEF7E5F8FFF7C8F9FEF7DDF81E4B10
:1054D0001A6892F8351059B1012937D0022945D000
:1054E00003293BD0FEF7D4F846F62E6045E014E0E1
:1054F0000EB1116C3160A4F800B019685F46B8F1C4
:10550000000FD1F8846041D0099901293BD00229CC
:1055100039D0042934D0082932D0FEF7B9F851E740
:1055200020000000940000207C000020C400002027
:10553000464C4147980000204E4F4E453F464C4157
:1055400047000000880000201C0100200EB1116CF3
:105550003160FEF79DF846F2A9100EE00EB1C6F8D4
:1055600000B0FEF795F847F2D92006E00EB1116CB5
:105570003160FEF78DF845F6C250208000205DE7CF
:10558000296AB14301E0296A31432962FEF780F8B4
:105590002780304652E72DE9F05F8046B4480F4639
:1055A0001446007810B146F2AA1012E0B8F1000FCC
:1055B0000DD04FF4807A77B157450CD0B7F5004F36
:1055C00009D0B7F5014F06D045F6256001E045F654
:1055D000C350108021E0A749D8F80000884202D0CB
:1055E00045F6C450F5E7FEF74FF8B8F8101008F18B
:1055F000080569B1DFF8809299F80020521C89F8FB
:105600000020FEF745F80026FDF743FF834610E033
:10561000FEF73EF846F2AB1020800020FEE5286839
:105620005A4681684046FFF7E0FB761CB6B2574504
:1056300002D128890028F2D1FEF726F899F8002037
:10564000521E89F80020FEF723F8380401D4FFF732
:1056500004F9002020803046E0E570B50446844817
:10566000007820B146F2AE102080002070BDFEF719
:105670000BF882490968D1F88450FEF709F8002038
:105680002080284670BD70B50025C0F8841080F8D1
:10569000355080F834500446026490F836000828EB
:1056A0000ED2DFE800F00D0D04040D0D0A0A2046AD
:1056B000FFF78EFB84F8365002E0042084F83600B1
:1056C0002046BDE87040FFF71BBB2DE9F0479A4626
:1056D00090460D460446089EFDF7D6FF01465FEA58
:1056E000080022D0012807D0B0F5004F1DD06FF47C
:1056F000004218EB020F12D1206AA843C4E9080A3D
:10570000208A04F108054FF0000988B15A4F387813
:10571000401C38700846FDF7BBFF2D6841E0084685
:10572000FDF7B6FF45F625605FE0206A2843E5E710
:105730000846FDF7ADFFA6F80090206ABDE8F087A7
:1057400090F888106D6801F00F01012918D0022926
:105750001ED004290AD008290DD0FDF795FF39780D
:10576000491E11F0FF01397033D03AE0216AD0F8B8
:105770008020114009E0216AD0F8802011400BE020
:10578000D0F88010236A0A4699438A4205D007E080
:10579000D0F88010226A914311B15246FFF773FF8F
:1057A00015B1A8680028CBD1FDF76EFF3978491EE6
:1057B0003970FDF76DFF5FEA084001D4FFF74DF83F
:1057C000FDF762FF246AFDF763FFA6F8009020460C
:1057D000B4E72B49098821B1FDF75AFFFFF74EFCCA
:1057E00001E0FDF755FF43F6FF2030800020A5E7DC
:1057F0002DE9FF411546884606001C460DD07DB1B7
:10580000012D0DD0B5F5004F0AD06FF40040C54210
:1058100006D045F62560188019E045F6C350FAE732
:10582000144F3068B84202D045F6C450F3E7FDF794
:1058300030FE03460E48007860B1CDE90234CDE970
:10584000008500231A463146384600F01FF8002034
:1058500004B0A2E42A46414630460094FFF735FFE3
:10586000F6E7084A00211160074A1180018070475D
:105870007C000020464C4147C40000201C01002051
:105880008800002094000020980000202DE9F05F9F
:105890001E46DDE90AAB90460F4681460D9CFDF79A
:1058A000F3FEA049A04A05460888128890422BD2F0
:1058B000401C80B208809D490A88824200D208803C
:1058C0009B4A1068C0F80090C0E902780682C0F8D0
:1058D00014A0A0F818B00C99C161406810609548F8
:1058E00001210181944901604160002000F06BFEBC
:1058F0009248007808B1924908700020208028461C
:10590000BDE8F05FFDF7C4BE8E480188491C0180E8
:1059100044F25360F2E73EB58B4C8C4A02AB2068F0
:1059200001688D1A914245D015DC894A89182DD01D
:10593000884A891822D0884A891832D0874AD142A9
:1059400008D1C169CDE90013038B028AC168806860
:1059500002F086F93EBD824969181DD0814A891836
:1059600023D0814AD142F5D1C169CDE90013038B1F
:10597000028AC168806801F08FF83EBD0093028BF7
:10598000C36941698068FFF7A0FE3EBD018BC26913
:10599000806801F014FB3EBD8068194602F049FAA8
:1059A0003EBD018BC269806822E08068194602F022
:1059B000B6FC3EBD62485F49007800EB400001EB59
:1059C0008000FFF774FB206802AB0021C2696748C2
:1059D00002F092FB66490868401E0860E9D16548FC
:1059E00000680860FDF755FD024602AB00216248E1
:1059F00002F082FB3EBD614F4A4C0025DFF8488132
:105A0000FDF742FE06462088E8B13046FDF740FE2D
:105A1000FDF73FFD0646FFF77EFFFDF73AFD3968CB
:105A2000801B814200D23860FDF72EFED8F800209E
:105A30005268C8F800202188491E2180FDF728FE01
:105A4000002DDDD0D9E73B4900200881086048607F
:105A500000F0C7FD3046FDF71BFEFEF7FEFECCE76B
:105A6000F0B53849464D89B000240C80296831B121
:105A70002D4E3188022905D244F2546135E044F2BA
:105A8000526132E03D4900233E4F0C60296801F12C
:105A9000200210E041F8087B5B1C41F8084B9BB2E8
:105AA00041F8044C21F8104B41F80C4C21F8084CFB
:105AB00041F81C2C2032B6F800C06345EAD32A68AE
:105AC00041F81C2C1A490A601F490A6015492E4AE0
:105AD0000C8016490C80116851B12C492C4D0B6873
